{
  "_format": "hh-sol-artifact-1",
  "contractName": "SheLeads",
  "sourceName": "contracts/SheLeads.sol",
  "abi": [
    {
      "inputs": [],
      "stateMutability": "nonpayable",
      "type": "constructor"
    },
    {
      "inputs": [],
      "name": "EmptyArgs",
      "type": "error"
    },
    {
      "inputs": [],
      "name": "EmptySecrets",
      "type": "error"
    },
    {
      "inputs": [],
      "name": "EmptySource",
      "type": "error"
    },
    {
      "inputs": [],
      "name": "NoInlineSecrets",
      "type": "error"
    },
    {
      "inputs": [],
      "name": "OnlyRouterCanFulfill",
      "type": "error"
    },
    {
      "inputs": [
        {
          "internalType": "bytes32",
          "name": "requestId",
          "type": "bytes32"
        }
      ],
      "name": "UnexpectedRequestID",
      "type": "error"
    },
    {
      "anonymous": false,
      "inputs": [
        {
          "indexed": true,
          "internalType": "address",
          "name": "userAddress",
          "type": "address"
        }
      ],
      "name": "AddActionPlan",
      "type": "event"
    },
    {
      "anonymous": false,
      "inputs": [
        {
          "indexed": true,
          "internalType": "address",
          "name": "userAddress",
          "type": "address"
        }
      ],
      "name": "AddProfessionalProfile",
      "type": "event"
    },
    {
      "anonymous": false,
      "inputs": [
        {
          "indexed": true,
          "internalType": "address",
          "name": "userAddress",
          "type": "address"
        }
      ],
      "name": "AddRecommendation",
      "type": "event"
    },
    {
      "anonymous": false,
      "inputs": [
        {
          "indexed": true,
          "internalType": "address",
          "name": "userAddress",
          "type": "address"
        }
      ],
      "name": "AddRecommendationActionPlan",
      "type": "event"
    },
    {
      "anonymous": false,
      "inputs": [
        {
          "indexed": true,
          "internalType": "address",
          "name": "from",
          "type": "address"
        },
        {
          "indexed": true,
          "internalType": "address",
          "name": "to",
          "type": "address"
        }
      ],
      "name": "OwnershipTransferRequested",
      "type": "event"
    },
    {
      "anonymous": false,
      "inputs": [
        {
          "indexed": true,
          "internalType": "address",
          "name": "from",
          "type": "address"
        },
        {
          "indexed": true,
          "internalType": "address",
          "name": "to",
          "type": "address"
        }
      ],
      "name": "OwnershipTransferred",
      "type": "event"
    },
    {
      "anonymous": false,
      "inputs": [
        {
          "indexed": true,
          "internalType": "bytes32",
          "name": "id",
          "type": "bytes32"
        }
      ],
      "name": "RequestFulfilled",
      "type": "event"
    },
    {
      "anonymous": false,
      "inputs": [
        {
          "indexed": true,
          "internalType": "bytes32",
          "name": "id",
          "type": "bytes32"
        }
      ],
      "name": "RequestSent",
      "type": "event"
    },
    {
      "anonymous": false,
      "inputs": [
        {
          "indexed": true,
          "internalType": "bytes32",
          "name": "requestId",
          "type": "bytes32"
        },
        {
          "indexed": false,
          "internalType": "string",
          "name": "result",
          "type": "string"
        },
        {
          "indexed": false,
          "internalType": "bytes",
          "name": "response",
          "type": "bytes"
        },
        {
          "indexed": false,
          "internalType": "bytes",
          "name": "err",
          "type": "bytes"
        }
      ],
      "name": "Response",
      "type": "event"
    },
    {
      "inputs": [],
      "name": "acceptOwnership",
      "outputs": [],
      "stateMutability": "nonpayable",
      "type": "function"
    },
    {
      "inputs": [
        {
          "internalType": "uint256",
          "name": "_recommendationId",
          "type": "uint256"
        },
        {
          "internalType": "string",
          "name": "_content",
          "type": "string"
        }
      ],
      "name": "addActionPlan",
      "outputs": [],
      "stateMutability": "nonpayable",
      "type": "function"
    },
    {
      "inputs": [
        {
          "internalType": "string",
          "name": "_content",
          "type": "string"
        }
      ],
      "name": "addProfessionalProfile",
      "outputs": [],
      "stateMutability": "nonpayable",
      "type": "function"
    },
    {
      "inputs": [
        {
          "internalType": "uint256",
          "name": "_professionalProfileId",
          "type": "uint256"
        },
        {
          "internalType": "string",
          "name": "_content",
          "type": "string"
        }
      ],
      "name": "addRecommendation",
      "outputs": [],
      "stateMutability": "nonpayable",
      "type": "function"
    },
    {
      "inputs": [
        {
          "internalType": "uint256",
          "name": "_professionalProfileId",
          "type": "uint256"
        },
        {
          "internalType": "string",
          "name": "_contentRecommendation",
          "type": "string"
        },
        {
          "internalType": "string",
          "name": "_contentActionPlan",
          "type": "string"
        }
      ],
      "name": "addRecommendationActionPlan",
      "outputs": [],
      "stateMutability": "nonpayable",
      "type": "function"
    },
    {
      "inputs": [
        {
          "internalType": "uint256",
          "name": "_recommendationId",
          "type": "uint256"
        }
      ],
      "name": "getActionPlan",
      "outputs": [
        {
          "components": [
            {
              "internalType": "uint256",
              "name": "id",
              "type": "uint256"
            },
            {
              "internalType": "string",
              "name": "content",
              "type": "string"
            },
            {
              "internalType": "uint256",
              "name": "createdAt",
              "type": "uint256"
            }
          ],
          "internalType": "struct SheLeads.ActionPlan",
          "name": "",
          "type": "tuple"
        }
      ],
      "stateMutability": "view",
      "type": "function"
    },
    {
      "inputs": [],
      "name": "getMyActionPlan",
      "outputs": [
        {
          "components": [
            {
              "internalType": "uint256",
              "name": "id",
              "type": "uint256"
            },
            {
              "internalType": "string",
              "name": "content",
              "type": "string"
            },
            {
              "internalType": "uint256",
              "name": "createdAt",
              "type": "uint256"
            }
          ],
          "internalType": "struct SheLeads.ActionPlan",
          "name": "",
          "type": "tuple"
        }
      ],
      "stateMutability": "view",
      "type": "function"
    },
    {
      "inputs": [],
      "name": "getProfessionalProfile",
      "outputs": [
        {
          "components": [
            {
              "internalType": "uint256",
              "name": "id",
              "type": "uint256"
            },
            {
              "internalType": "string",
              "name": "content",
              "type": "string"
            },
            {
              "internalType": "uint256",
              "name": "createdAt",
              "type": "uint256"
            }
          ],
          "internalType": "struct SheLeads.ProfessionalProfile",
          "name": "",
          "type": "tuple"
        }
      ],
      "stateMutability": "view",
      "type": "function"
    },
    {
      "inputs": [
        {
          "internalType": "uint256",
          "name": "_professionalProfile",
          "type": "uint256"
        }
      ],
      "name": "getRecommendation",
      "outputs": [
        {
          "components": [
            {
              "internalType": "uint256",
              "name": "id",
              "type": "uint256"
            },
            {
              "internalType": "string",
              "name": "content",
              "type": "string"
            },
            {
              "internalType": "uint256",
              "name": "createdAt",
              "type": "uint256"
            }
          ],
          "internalType": "struct SheLeads.Recommendation",
          "name": "",
          "type": "tuple"
        }
      ],
      "stateMutability": "view",
      "type": "function"
    },
    {
      "inputs": [],
      "name": "getRecommendations",
      "outputs": [
        {
          "components": [
            {
              "internalType": "uint256",
              "name": "id",
              "type": "uint256"
            },
            {
              "internalType": "string",
              "name": "content",
              "type": "string"
            },
            {
              "internalType": "uint256",
              "name": "createdAt",
              "type": "uint256"
            }
          ],
          "internalType": "struct SheLeads.Recommendation[]",
          "name": "",
          "type": "tuple[]"
        }
      ],
      "stateMutability": "view",
      "type": "function"
    },
    {
      "inputs": [
        {
          "internalType": "bytes32",
          "name": "requestId",
          "type": "bytes32"
        },
        {
          "internalType": "bytes",
          "name": "response",
          "type": "bytes"
        },
        {
          "internalType": "bytes",
          "name": "err",
          "type": "bytes"
        }
      ],
      "name": "handleOracleFulfillment",
      "outputs": [],
      "stateMutability": "nonpayable",
      "type": "function"
    },
    {
      "inputs": [],
      "name": "owner",
      "outputs": [
        {
          "internalType": "address",
          "name": "",
          "type": "address"
        }
      ],
      "stateMutability": "view",
      "type": "function"
    },
    {
      "inputs": [],
      "name": "result",
      "outputs": [
        {
          "internalType": "string",
          "name": "",
          "type": "string"
        }
      ],
      "stateMutability": "view",
      "type": "function"
    },
    {
      "inputs": [],
      "name": "s_lastError",
      "outputs": [
        {
          "internalType": "bytes",
          "name": "",
          "type": "bytes"
        }
      ],
      "stateMutability": "view",
      "type": "function"
    },
    {
      "inputs": [],
      "name": "s_lastRequestId",
      "outputs": [
        {
          "internalType": "bytes32",
          "name": "",
          "type": "bytes32"
        }
      ],
      "stateMutability": "view",
      "type": "function"
    },
    {
      "inputs": [],
      "name": "s_lastResponse",
      "outputs": [
        {
          "internalType": "bytes",
          "name": "",
          "type": "bytes"
        }
      ],
      "stateMutability": "view",
      "type": "function"
    },
    {
      "inputs": [
        {
          "internalType": "uint64",
          "name": "subscriptionId",
          "type": "uint64"
        },
        {
          "internalType": "bytes",
          "name": "encryptedSecrets",
          "type": "bytes"
        },
        {
          "internalType": "string[]",
          "name": "args",
          "type": "string[]"
        }
      ],
      "name": "sendRequest",
      "outputs": [
        {
          "internalType": "bytes32",
          "name": "requestId",
          "type": "bytes32"
        }
      ],
      "stateMutability": "nonpayable",
      "type": "function"
    },
    {
      "inputs": [
        {
          "internalType": "address",
          "name": "to",
          "type": "address"
        }
      ],
      "name": "transferOwnership",
      "outputs": [],
      "stateMutability": "nonpayable",
      "type": "function"
    }
  ],
  "bytecode": "0x60a060405273f9b8fc078197181c841c296c876945aaa425b278600f60006101000a81548173ffffffffffffffffffffffffffffffffffffffff021916908373ffffffffffffffffffffffffffffffffffffffff160217905550604051806102c0016040528061028d81526020016200439361028d913960109081620000869190620005e7565b50620493e0601160006101000a81548163ffffffff021916908363ffffffff1602179055507f66756e2d626173652d7365706f6c69612d31000000000000000000000000000060001b601255348015620000df57600080fd5b5033806000600f60009054906101000a900473ffffffffffffffffffffffffffffffffffffffff168073ffffffffffffffffffffffffffffffffffffffff1660808173ffffffffffffffffffffffffffffffffffffffff168152505050600073ffffffffffffffffffffffffffffffffffffffff168273ffffffffffffffffffffffffffffffffffffffff1603620001ae576040517f08c379a0000000000000000000000000000000000000000000000000000000008152600401620001a5906200072f565b60405180910390fd5b816000806101000a81548173ffffffffffffffffffffffffffffffffffffffff021916908373ffffffffffffffffffffffffffffffffffffffff160217905550600073ffffffffffffffffffffffffffffffffffffffff168173ffffffffffffffffffffffffffffffffffffffff1614620002355762000234816200023e60201b60201c565b5b505050620007c3565b3373ffffffffffffffffffffffffffffffffffffffff168173ffffffffffffffffffffffffffffffffffffffff1603620002af576040517f08c379a0000000000000000000000000000000000000000000000000000000008152600401620002a690620007a1565b60405180910390fd5b80600160006101000a81548173ffffffffffffffffffffffffffffffffffffffff021916908373ffffffffffffffffffffffffffffffffffffffff1602179055508073ffffffffffffffffffffffffffffffffffffffff1660008054906101000a900473ffffffffffffffffffffffffffffffffffffffff1673ffffffffffffffffffffffffffffffffffffffff167fed8889f560326eb138920d842192f0eb3dd22b4f139c87a2c57538e05bae127860405160405180910390a350565b600081519050919050565b7f4e487b7100000000000000000000000000000000000000000000000000000000600052604160045260246000fd5b7f4e487b7100000000000000000000000000000000000000000000000000000000600052602260045260246000fd5b60006002820490506001821680620003ef57607f821691505b602082108103620004055762000404620003a7565b5b50919050565b60008190508160005260206000209050919050565b60006020601f8301049050919050565b600082821b905092915050565b6000600883026200046f7fffffffffffffffffffffffffffffffffffffffffffffffffffffffffffffffff8262000430565b6200047b868362000430565b95508019841693508086168417925050509392505050565b6000819050919050565b6000819050919050565b6000620004c8620004c2620004bc8462000493565b6200049d565b62000493565b9050919050565b6000819050919050565b620004e483620004a7565b620004fc620004f382620004cf565b8484546200043d565b825550505050565b600090565b6200051362000504565b62000520818484620004d9565b505050565b5b8181101562000548576200053c60008262000509565b60018101905062000526565b5050565b601f821115620005975762000561816200040b565b6200056c8462000420565b810160208510156200057c578190505b620005946200058b8562000420565b83018262000525565b50505b505050565b600082821c905092915050565b6000620005bc600019846008026200059c565b1980831691505092915050565b6000620005d78383620005a9565b9150826002028217905092915050565b620005f2826200036d565b67ffffffffffffffff8111156200060e576200060d62000378565b5b6200061a8254620003d6565b620006278282856200054c565b600060209050601f8311600181146200065f57600084156200064a578287015190505b620006568582620005c9565b865550620006c6565b601f1984166200066f866200040b565b60005b82811015620006995784890151825560018201915060208501945060208101905062000672565b86831015620006b95784890151620006b5601f891682620005a9565b8355505b6001600288020188555050505b505050505050565b600082825260208201905092915050565b7f43616e6e6f7420736574206f776e657220746f207a65726f0000000000000000600082015250565b600062000717601883620006ce565b91506200072482620006df565b602082019050919050565b600060208201905081810360008301526200074a8162000708565b9050919050565b7f43616e6e6f74207472616e7366657220746f2073656c66000000000000000000600082015250565b600062000789601783620006ce565b9150620007968262000751565b602082019050919050565b60006020820190508181036000830152620007bc816200077a565b9050919050565b608051613bad620007e66000396000818161034f0152611abd0152613bad6000f3fe608060405234801561001057600080fd5b50600436106101165760003560e01c8063876a72d7116100a2578063b1e2174911610071578063b1e21749146102a9578063b40aab51146102c7578063dd23f8ed146102f7578063f0a32d7e14610313578063f2fde38b1461033157610116565b8063876a72d7146102215780638da5cb5b1461023f5780639168e82c1461025d578063a1536afe1461027957610116565b80634b0795a8116100e95780634b0795a8146101a15780635154da5a146101bf57806365372147146101db578063759f78da146101f957806379ba50971461021757610116565b80630ca761751461011b5780632f7474a1146101375780633944ea3a146101535780633e8c352714610171575b600080fd5b6101356004803603810190610130919061261b565b61034d565b005b610151600480360381019061014c9190612747565b61040f565b005b61015b610573565b604051610168919061280f565b60405180910390f35b61018b60048036038101906101869190612867565b610601565b6040516101989190612948565b60405180910390f35b6101a96106ed565b6040516101b6919061280f565b60405180910390f35b6101d960048036038101906101d4919061296a565b61077b565b005b6101e3610836565b6040516101f09190612a10565b60405180910390f35b6102016108c4565b60405161020e9190612b44565b60405180910390f35b61021f610bd8565b005b610229610d6d565b6040516102369190612bb6565b60405180910390f35b610247610e83565b6040516102549190612c19565b60405180910390f35b61027760048036038101906102729190612c34565b610eac565b005b610293600480360381019061028e9190612867565b61107b565b6040516102a09190612d0f565b60405180910390f35b6102b161114e565b6040516102be9190612d40565b60405180910390f35b6102e160048036038101906102dc9190612dfb565b611154565b6040516102ee9190612d40565b60405180910390f35b610311600480360381019061030c919061296a565b611281565b005b61031b6113db565b6040516103289190612948565b60405180910390f35b61034b60048036038101906103469190612eb7565b6114d8565b005b7f000000000000000000000000000000000000000000000000000000000000000073ffffffffffffffffffffffffffffffffffffffff163373ffffffffffffffffffffffffffffffffffffffff16146103d2576040517fc6829f8300000000000000000000000000000000000000000000000000000000815260040160405180910390fd5b6103dd8383836114ec565b827f85e1543bf2f84fe80c6badbce3648c8539ad1df4d2b3d822938ca0538be727e660405160405180910390a2505050565b600061041b60026115a6565b905080600860003373ffffffffffffffffffffffffffffffffffffffff1673ffffffffffffffffffffffffffffffffffffffff16815260200190815260200160002081905550600960003373ffffffffffffffffffffffffffffffffffffffff1673ffffffffffffffffffffffffffffffffffffffff168152602001908152602001600020819080600181540180825580915050600190039060005260206000200160009091909190915055604051806060016040528082815260200183815260200142815250600a600083815260200190815260200160002060008201518160000155602082015181600101908161051491906130f0565b506040820151816002015590505061052c60026115b4565b3373ffffffffffffffffffffffffffffffffffffffff167fc7082cdecc2539ec9a36307102780434b5e042a0ef8edb52cbe8a12a291a8d0260405160405180910390a25050565b6006805461058090612f13565b80601f01602080910402602001604051908101604052809291908181526020018280546105ac90612f13565b80156105f95780601f106105ce576101008083540402835291602001916105f9565b820191906000526020600020905b8154815290600101906020018083116105dc57829003601f168201915b505050505081565b61060961237c565b6000600c6000848152602001908152602001600020549050600d60008281526020019081526020016000206040518060600160405290816000820154815260200160018201805461065990612f13565b80601f016020809104026020016040519081016040528092919081815260200182805461068590612f13565b80156106d25780601f106106a7576101008083540402835291602001916106d2565b820191906000526020600020905b8154815290600101906020018083116106b557829003601f168201915b50505050508152602001600282015481525050915050919050565b600780546106fa90612f13565b80601f016020809104026020016040519081016040528092919081815260200182805461072690612f13565b80156107735780601f1061074857610100808354040283529160200191610773565b820191906000526020600020905b81548152906001019060200180831161075657829003601f168201915b505050505081565b600061078760036115a6565b9050604051806060016040528082815260200183815260200142815250600b60008581526020019081526020016000206000820151816000015560208201518160010190816107d691906130f0565b50604082015181600201559050506107ee60036115b4565b3373ffffffffffffffffffffffffffffffffffffffff167fadb097085cd54defd6de7b9090ce17112766c55f14ddb3121c252f9813aeb21360405160405180910390a2505050565b6013805461084390612f13565b80601f016020809104026020016040519081016040528092919081815260200182805461086f90612f13565b80156108bc5780601f10610891576101008083540402835291602001916108bc565b820191906000526020600020905b81548152906001019060200180831161089f57829003601f168201915b505050505081565b60606000600960003373ffffffffffffffffffffffffffffffffffffffff1673ffffffffffffffffffffffffffffffffffffffff16815260200190815260200160002080548060200260200160405190810160405280929190818152602001828054801561095157602002820191906000526020600020905b81548152602001906001019080831161093d575b505050505090506000805b82518110156109e8576040518060200160405280600081525080519060200120600b6000858481518110610993576109926131c2565b5b602002602001015181526020019081526020016000206001016040516109b99190613294565b6040518091039020146109d55781806109d1906132da565b9250505b80806109e0906132da565b91505061095c565b5060008167ffffffffffffffff811115610a0557610a046124f0565b5b604051908082528060200260200182016040528015610a3e57816020015b610a2b61239d565b815260200190600190039081610a235790505b5090506000805b8451811015610bcd576040518060200160405280600081525080519060200120600b6000878481518110610a7c57610a7b6131c2565b5b60200260200101518152602001908152602001600020600101604051610aa29190613294565b604051809103902014610bba57600b6000868381518110610ac657610ac56131c2565b5b6020026020010151815260200190815260200160002060405180606001604052908160008201548152602001600182018054610b0190612f13565b80601f0160208091040260200160405190810160405280929190818152602001828054610b2d90612f13565b8015610b7a5780601f10610b4f57610100808354040283529160200191610b7a565b820191906000526020600020905b815481529060010190602001808311610b5d57829003601f168201915b50505050508152602001600282015481525050838381518110610ba057610b9f6131c2565b5b60200260200101819052508180610bb6906132da565b9250505b8080610bc5906132da565b915050610a45565b508194505050505090565b600160009054906101000a900473ffffffffffffffffffffffffffffffffffffffff1673ffffffffffffffffffffffffffffffffffffffff163373ffffffffffffffffffffffffffffffffffffffff1614610c68576040517f08c379a0000000000000000000000000000000000000000000000000000000008152600401610c5f9061336e565b60405180910390fd5b60008060009054906101000a900473ffffffffffffffffffffffffffffffffffffffff169050336000806101000a81548173ffffffffffffffffffffffffffffffffffffffff021916908373ffffffffffffffffffffffffffffffffffffffff1602179055506000600160006101000a81548173ffffffffffffffffffffffffffffffffffffffff021916908373ffffffffffffffffffffffffffffffffffffffff1602179055503373ffffffffffffffffffffffffffffffffffffffff168173ffffffffffffffffffffffffffffffffffffffff167f8be0079c531659141344cd1fd0a4f28419497f9722a3daafe3b4186f6b6457e060405160405180910390a350565b610d756123be565b6000600860003373ffffffffffffffffffffffffffffffffffffffff1673ffffffffffffffffffffffffffffffffffffffff168152602001908152602001600020549050600a600082815260200190815260200160002060405180606001604052908160008201548152602001600182018054610df190612f13565b80601f0160208091040260200160405190810160405280929190818152602001828054610e1d90612f13565b8015610e6a5780601f10610e3f57610100808354040283529160200191610e6a565b820191906000526020600020905b815481529060010190602001808311610e4d57829003601f168201915b5050505050815260200160028201548152505091505090565b60008060009054906101000a900473ffffffffffffffffffffffffffffffffffffffff16905090565b6000610eb860036115a6565b9050604051806060016040528082815260200184815260200142815250600b6000868152602001908152602001600020600082015181600001556020820151816001019081610f0791906130f0565b50604082015181600201559050506000610f2160046115a6565b905080600c600084815260200190815260200160002081905550604051806060016040528082815260200184815260200142815250600e60003373ffffffffffffffffffffffffffffffffffffffff1673ffffffffffffffffffffffffffffffffffffffff168152602001908152602001600020600082015181600001556020820151816001019081610fb491906130f0565b5060408201518160020155905050604051806060016040528082815260200184815260200142815250600d600083815260200190815260200160002060008201518160000155602082015181600101908161100f91906130f0565b506040820151816002015590505061102760046115b4565b61103160036115b4565b3373ffffffffffffffffffffffffffffffffffffffff167f61a9cb4f436c185d72b15d73d5219acaeaea0a2ffa2fbe94adbba8f0f0bd3fde60405160405180910390a25050505050565b61108361239d565b600b6000838152602001908152602001600020604051806060016040529081600082015481526020016001820180546110bb90612f13565b80601f01602080910402602001604051908101604052809291908181526020018280546110e790612f13565b80156111345780601f1061110957610100808354040283529160200191611134565b820191906000526020600020905b81548152906001019060200180831161111757829003601f168201915b505050505081526020016002820154815250509050919050565b60055481565b600061115e6123df565b6111fb6010805461116e90612f13565b80601f016020809104026020016040519081016040528092919081815260200182805461119a90612f13565b80156111e75780601f106111bc576101008083540402835291602001916111e7565b820191906000526020600020905b8154815290600101906020018083116111ca57829003601f168201915b5050505050826115ca90919063ffffffff16565b6000848490501115611227576112268484906112179190613441565b826115db90919063ffffffff16565b5b60008551111561124557611244858261162390919063ffffffff16565b5b61126d6112518261169c565b87601160009054906101000a900463ffffffff16601254611ab8565b600581905550600554915050949350505050565b600061128d60046115a6565b905080600c600085815260200190815260200160002081905550604051806060016040528082815260200183815260200142815250600e60003373ffffffffffffffffffffffffffffffffffffffff1673ffffffffffffffffffffffffffffffffffffffff16815260200190815260200160002060008201518160000155602082015181600101908161132091906130f0565b5060408201518160020155905050604051806060016040528082815260200183815260200142815250600d600083815260200190815260200160002060008201518160000155602082015181600101908161137b91906130f0565b506040820151816002015590505061139360046115b4565b3373ffffffffffffffffffffffffffffffffffffffff167f2e666739184a056dc66b03a9cecfbadafdf4f1b649dec56336289578b834771b60405160405180910390a2505050565b6113e361237c565b600e60003373ffffffffffffffffffffffffffffffffffffffff1673ffffffffffffffffffffffffffffffffffffffff1681526020019081526020016000206040518060600160405290816000820154815260200160018201805461144790612f13565b80601f016020809104026020016040519081016040528092919081815260200182805461147390612f13565b80156114c05780601f10611495576101008083540402835291602001916114c0565b820191906000526020600020905b8154815290600101906020018083116114a357829003601f168201915b50505050508152602001600282015481525050905090565b6114e0611b9b565b6114e981611c2b565b50565b826005541461153257826040517fd068bf5b0000000000000000000000000000000000000000000000000000000081526004016115299190612d40565b60405180910390fd5b816006908161154191906134b1565b50816013908161155191906130f0565b50806007908161156191906134b1565b50827f160ed0aaffbef6885155188b91459cb5a97d5daadccf7561d8c46deea6641b506013600660076040516115999392919061368b565b60405180910390a2505050565b600081600001549050919050565b6001816000016000828254019250508190555050565b6115d78260008084611d57565b5050565b6000815103611616576040517ffe936cb700000000000000000000000000000000000000000000000000000000815260040160405180910390fd5b808260a001819052505050565b600081510361165e576040517fe889636f00000000000000000000000000000000000000000000000000000000815260040160405180910390fd5b600182602001906002811115611677576116766136d7565b5b9081600281111561168b5761168a6136d7565b5b815250508082608001819052505050565b606060006116ab610100611e01565b90506116f56040518060400160405280600c81526020017f636f64654c6f636174696f6e000000000000000000000000000000000000000081525082611e2890919063ffffffff16565b61171e8360000151600281111561170f5761170e6136d7565b5b82611e5190919063ffffffff16565b6117666040518060400160405280600881526020017f6c616e677561676500000000000000000000000000000000000000000000000081525082611e2890919063ffffffff16565b61178f836040015160008111156117805761177f6136d7565b5b82611e5190919063ffffffff16565b6117d76040518060400160405280600681526020017f736f75726365000000000000000000000000000000000000000000000000000081525082611e2890919063ffffffff16565b6117ee836060015182611e2890919063ffffffff16565b60008360a001515111156118aa576118446040518060400160405280600481526020017f617267730000000000000000000000000000000000000000000000000000000081525082611e2890919063ffffffff16565b61184d81611ea1565b60005b8360a001515181101561189f5761188e8460a001518281518110611877576118766131c2565b5b602002602001015183611e2890919063ffffffff16565b80611898906132da565b9050611850565b506118a981611ec9565b5b600083608001515111156119eb57600060028111156118cc576118cb6136d7565b5b836020015160028111156118e3576118e26136d7565b5b0361191a576040517fa80d31f700000000000000000000000000000000000000000000000000000000815260040160405180910390fd5b6119626040518060400160405280600f81526020017f736563726574734c6f636174696f6e000000000000000000000000000000000081525082611e2890919063ffffffff16565b61198b8360200151600281111561197c5761197b6136d7565b5b82611e5190919063ffffffff16565b6119d36040518060400160405280600781526020017f736563726574730000000000000000000000000000000000000000000000000081525082611e2890919063ffffffff16565b6119ea836080015182611ef190919063ffffffff16565b5b60008360c00151511115611aa757611a416040518060400160405280600981526020017f627974657341726773000000000000000000000000000000000000000000000081525082611e2890919063ffffffff16565b611a4a81611ea1565b60005b8360c0015151811015611a9c57611a8b8460c001518281518110611a7457611a736131c2565b5b602002602001015183611ef190919063ffffffff16565b80611a95906132da565b9050611a4d565b50611aa681611ec9565b5b806000015160000151915050919050565b6000807f000000000000000000000000000000000000000000000000000000000000000073ffffffffffffffffffffffffffffffffffffffff1663461d27628688600188886040518663ffffffff1660e01b8152600401611b1d959493929190613751565b6020604051808303816000875af1158015611b3c573d6000803e3d6000fd5b505050506040513d601f19601f82011682018060405250810190611b6091906137c0565b9050807f1131472297a800fee664d1d89cfa8f7676ff07189ecc53f80bbb5f4969099db860405160405180910390a280915050949350505050565b60008054906101000a900473ffffffffffffffffffffffffffffffffffffffff1673ffffffffffffffffffffffffffffffffffffffff163373ffffffffffffffffffffffffffffffffffffffff1614611c29576040517f08c379a0000000000000000000000000000000000000000000000000000000008152600401611c2090613839565b60405180910390fd5b565b3373ffffffffffffffffffffffffffffffffffffffff168173ffffffffffffffffffffffffffffffffffffffff1603611c99576040517f08c379a0000000000000000000000000000000000000000000000000000000008152600401611c90906138a5565b60405180910390fd5b80600160006101000a81548173ffffffffffffffffffffffffffffffffffffffff021916908373ffffffffffffffffffffffffffffffffffffffff1602179055508073ffffffffffffffffffffffffffffffffffffffff1660008054906101000a900473ffffffffffffffffffffffffffffffffffffffff1673ffffffffffffffffffffffffffffffffffffffff167fed8889f560326eb138920d842192f0eb3dd22b4f139c87a2c57538e05bae127860405160405180910390a350565b6000815103611d92576040517f22ce3edd00000000000000000000000000000000000000000000000000000000815260040160405180910390fd5b8284600001906002811115611daa57611da96136d7565b5b90816002811115611dbe57611dbd6136d7565b5b815250508184604001906000811115611dda57611dd96136d7565b5b90816000811115611dee57611ded6136d7565b5b8152505080846060018190525050505050565b611e09612451565b611e17816000015183611f1a565b506000816020018181525050919050565b611e358260038351611f93565b611e4c81836000015161213c90919063ffffffff16565b505050565b611e7360026005600660ff16901b17836000015161215890919063ffffffff16565b50611e9d8282604051602001611e8991906138d4565b604051602081830303815290604052611ef1565b5050565b611eac8160046121c2565b600181602001818151611ebf91906138ef565b9150818152505050565b611ed48160076121c2565b600181602001818151611ee79190613923565b9150818152505050565b611efe8260028351611f93565b611f1581836000015161213c90919063ffffffff16565b505050565b611f22612471565b6000602083611f319190613986565b14611f5d57602082611f439190613986565b6020611f4f9190613923565b82611f5a91906138ef565b91505b818360200181815250506040518084526000815282810160200181811015611f8457600080fd5b80604052505082905092915050565b60178167ffffffffffffffff1611611fce57611fc88160058460ff16901b60ff1617846000015161215890919063ffffffff16565b50612137565b60ff8167ffffffffffffffff161161202c57612001601860058460ff16901b17846000015161215890919063ffffffff16565b506120268167ffffffffffffffff16600185600001516121e89092919063ffffffff16565b50612136565b61ffff8167ffffffffffffffff161161208b57612060601960058460ff16901b17846000015161215890919063ffffffff16565b506120858167ffffffffffffffff16600285600001516121e89092919063ffffffff16565b50612135565b63ffffffff8167ffffffffffffffff16116120ec576120c1601a60058460ff16901b17846000015161215890919063ffffffff16565b506120e68167ffffffffffffffff16600485600001516121e89092919063ffffffff16565b50612134565b61210d601b60058460ff16901b17846000015161215890919063ffffffff16565b506121328167ffffffffffffffff16600885600001516121e89092919063ffffffff16565b505b5b5b5b505050565b612144612471565b61215083838451612275565b905092915050565b612160612471565b60008360000151519050600060018261217991906138ef565b90508460200151821061219d5761219c8560028361219791906139b7565b612358565b5b845160208382010185815381518311156121b5578282525b5050849250505092915050565b6121e3601f60058360ff16901b17836000015161215890919063ffffffff16565b505050565b6121f0612471565b600084600001515190506000818461220891906138ef565b9050856020015181111561222d5761222c8660028361222791906139b7565b612358565b5b600060018561010061223f9190613b2c565b6122499190613923565b905086518281018783198251161781528151841115612266578382525b50508693505050509392505050565b61227d612471565b825182111561228b57600080fd5b60008460000151519050600083826122a391906138ef565b905085602001518111156122c8576122c7866002836122c291906139b7565b612358565b5b600080875180518560208301019350808511156122e3578482525b60208901925050505b6020861061232a578051825260208261230591906138ef565b915060208161231491906138ef565b90506020866123239190613923565b95506122ec565b60006001876020036101000a0390508019825116818451168181178552505050879450505050509392505050565b60008260000151905061236b8383611f1a565b50612376838261213c565b50505050565b60405180606001604052806000815260200160608152602001600081525090565b60405180606001604052806000815260200160608152602001600081525090565b60405180606001604052806000815260200160608152602001600081525090565b6040518060e00160405280600060028111156123fe576123fd6136d7565b5b815260200160006002811115612417576124166136d7565b5b815260200160008081111561242f5761242e6136d7565b5b8152602001606081526020016060815260200160608152602001606081525090565b6040518060400160405280612464612471565b8152602001600081525090565b604051806040016040528060608152602001600081525090565b6000604051905090565b600080fd5b600080fd5b6000819050919050565b6124b28161249f565b81146124bd57600080fd5b50565b6000813590506124cf816124a9565b92915050565b600080fd5b600080fd5b6000601f19601f8301169050919050565b7f4e487b7100000000000000000000000000000000000000000000000000000000600052604160045260246000fd5b612528826124df565b810181811067ffffffffffffffff82111715612547576125466124f0565b5b80604052505050565b600061255a61248b565b9050612566828261251f565b919050565b600067ffffffffffffffff821115612586576125856124f0565b5b61258f826124df565b9050602081019050919050565b82818337600083830152505050565b60006125be6125b98461256b565b612550565b9050828152602081018484840111156125da576125d96124da565b5b6125e584828561259c565b509392505050565b600082601f830112612602576126016124d5565b5b81356126128482602086016125ab565b91505092915050565b60008060006060848603121561263457612633612495565b5b6000612642868287016124c0565b935050602084013567ffffffffffffffff8111156126635761266261249a565b5b61266f868287016125ed565b925050604084013567ffffffffffffffff8111156126905761268f61249a565b5b61269c868287016125ed565b9150509250925092565b600067ffffffffffffffff8211156126c1576126c06124f0565b5b6126ca826124df565b9050602081019050919050565b60006126ea6126e5846126a6565b612550565b905082815260208101848484011115612706576127056124da565b5b61271184828561259c565b509392505050565b600082601f83011261272e5761272d6124d5565b5b813561273e8482602086016126d7565b91505092915050565b60006020828403121561275d5761275c612495565b5b600082013567ffffffffffffffff81111561277b5761277a61249a565b5b61278784828501612719565b91505092915050565b600081519050919050565b600082825260208201905092915050565b60005b838110156127ca5780820151818401526020810190506127af565b60008484015250505050565b60006127e182612790565b6127eb818561279b565b93506127fb8185602086016127ac565b612804816124df565b840191505092915050565b6000602082019050818103600083015261282981846127d6565b905092915050565b6000819050919050565b61284481612831565b811461284f57600080fd5b50565b6000813590506128618161283b565b92915050565b60006020828403121561287d5761287c612495565b5b600061288b84828501612852565b91505092915050565b61289d81612831565b82525050565b600081519050919050565b600082825260208201905092915050565b60006128ca826128a3565b6128d481856128ae565b93506128e48185602086016127ac565b6128ed816124df565b840191505092915050565b60006060830160008301516129106000860182612894565b506020830151848203602086015261292882826128bf565b915050604083015161293d6040860182612894565b508091505092915050565b6000602082019050818103600083015261296281846128f8565b905092915050565b6000806040838503121561298157612980612495565b5b600061298f85828601612852565b925050602083013567ffffffffffffffff8111156129b0576129af61249a565b5b6129bc85828601612719565b9150509250929050565b600082825260208201905092915050565b60006129e2826128a3565b6129ec81856129c6565b93506129fc8185602086016127ac565b612a05816124df565b840191505092915050565b60006020820190508181036000830152612a2a81846129d7565b905092915050565b600081519050919050565b600082825260208201905092915050565b6000819050602082019050919050565b6000606083016000830151612a766000860182612894565b5060208301518482036020860152612a8e82826128bf565b9150506040830151612aa36040860182612894565b508091505092915050565b6000612aba8383612a5e565b905092915050565b6000602082019050919050565b6000612ada82612a32565b612ae48185612a3d565b935083602082028501612af685612a4e565b8060005b85811015612b325784840389528151612b138582612aae565b9450612b1e83612ac2565b925060208a01995050600181019050612afa565b50829750879550505050505092915050565b60006020820190508181036000830152612b5e8184612acf565b905092915050565b6000606083016000830151612b7e6000860182612894565b5060208301518482036020860152612b9682826128bf565b9150506040830151612bab6040860182612894565b508091505092915050565b60006020820190508181036000830152612bd08184612b66565b905092915050565b600073ffffffffffffffffffffffffffffffffffffffff82169050919050565b6000612c0382612bd8565b9050919050565b612c1381612bf8565b82525050565b6000602082019050612c2e6000830184612c0a565b92915050565b600080600060608486031215612c4d57612c4c612495565b5b6000612c5b86828701612852565b935050602084013567ffffffffffffffff811115612c7c57612c7b61249a565b5b612c8886828701612719565b925050604084013567ffffffffffffffff811115612ca957612ca861249a565b5b612cb586828701612719565b9150509250925092565b6000606083016000830151612cd76000860182612894565b5060208301518482036020860152612cef82826128bf565b9150506040830151612d046040860182612894565b508091505092915050565b60006020820190508181036000830152612d298184612cbf565b905092915050565b612d3a8161249f565b82525050565b6000602082019050612d556000830184612d31565b92915050565b600067ffffffffffffffff82169050919050565b612d7881612d5b565b8114612d8357600080fd5b50565b600081359050612d9581612d6f565b92915050565b600080fd5b600080fd5b60008083601f840112612dbb57612dba6124d5565b5b8235905067ffffffffffffffff811115612dd857612dd7612d9b565b5b602083019150836020820283011115612df457612df3612da0565b5b9250929050565b60008060008060608587031215612e1557612e14612495565b5b6000612e2387828801612d86565b945050602085013567ffffffffffffffff811115612e4457612e4361249a565b5b612e50878288016125ed565b935050604085013567ffffffffffffffff811115612e7157612e7061249a565b5b612e7d87828801612da5565b925092505092959194509250565b612e9481612bf8565b8114612e9f57600080fd5b50565b600081359050612eb181612e8b565b92915050565b600060208284031215612ecd57612ecc612495565b5b6000612edb84828501612ea2565b91505092915050565b7f4e487b7100000000000000000000000000000000000000000000000000000000600052602260045260246000fd5b60006002820490506001821680612f2b57607f821691505b602082108103612f3e57612f3d612ee4565b5b50919050565b60008190508160005260206000209050919050565b60006020601f8301049050919050565b600082821b905092915050565b600060088302612fa67fffffffffffffffffffffffffffffffffffffffffffffffffffffffffffffffff82612f69565b612fb08683612f69565b95508019841693508086168417925050509392505050565b6000819050919050565b6000612fed612fe8612fe384612831565b612fc8565b612831565b9050919050565b6000819050919050565b61300783612fd2565b61301b61301382612ff4565b848454612f76565b825550505050565b600090565b613030613023565b61303b818484612ffe565b505050565b5b8181101561305f57613054600082613028565b600181019050613041565b5050565b601f8211156130a45761307581612f44565b61307e84612f59565b8101602085101561308d578190505b6130a161309985612f59565b830182613040565b50505b505050565b600082821c905092915050565b60006130c7600019846008026130a9565b1980831691505092915050565b60006130e083836130b6565b9150826002028217905092915050565b6130f9826128a3565b67ffffffffffffffff811115613112576131116124f0565b5b61311c8254612f13565b613127828285613063565b600060209050601f83116001811461315a5760008415613148578287015190505b61315285826130d4565b8655506131ba565b601f19841661316886612f44565b60005b828110156131905784890151825560018201915060208501945060208101905061316b565b868310156131ad57848901516131a9601f8916826130b6565b8355505b6001600288020188555050505b505050505050565b7f4e487b7100000000000000000000000000000000000000000000000000000000600052603260045260246000fd5b600081905092915050565b60008190508160005260206000209050919050565b6000815461321e81612f13565b61322881866131f1565b9450600182166000811461324357600181146132585761328b565b60ff198316865281151582028601935061328b565b613261856131fc565b60005b8381101561328357815481890152600182019150602081019050613264565b838801955050505b50505092915050565b60006132a08284613211565b915081905092915050565b7f4e487b7100000000000000000000000000000000000000000000000000000000600052601160045260246000fd5b60006132e582612831565b91507fffffffffffffffffffffffffffffffffffffffffffffffffffffffffffffffff8203613317576133166132ab565b5b600182019050919050565b7f4d7573742062652070726f706f736564206f776e657200000000000000000000600082015250565b60006133586016836129c6565b915061336382613322565b602082019050919050565b600060208201905081810360008301526133878161334b565b9050919050565b600067ffffffffffffffff8211156133a9576133a86124f0565b5b602082029050602081019050919050565b60006133cd6133c88461338e565b612550565b905080838252602082019050602084028301858111156133f0576133ef612da0565b5b835b8181101561343757803567ffffffffffffffff811115613415576134146124d5565b5b8086016134228982612719565b855260208501945050506020810190506133f2565b5050509392505050565b600061344e3684846133ba565b905092915050565b60008190508160005260206000209050919050565b601f8211156134ac5761347d81613456565b61348684612f59565b81016020851015613495578190505b6134a96134a185612f59565b830182613040565b50505b505050565b6134ba82612790565b67ffffffffffffffff8111156134d3576134d26124f0565b5b6134dd8254612f13565b6134e882828561346b565b600060209050601f83116001811461351b5760008415613509578287015190505b61351385826130d4565b86555061357b565b601f19841661352986613456565b60005b828110156135515784890151825560018201915060208501945060208101905061352c565b8683101561356e578489015161356a601f8916826130b6565b8355505b6001600288020188555050505b505050505050565b6000815461359081612f13565b61359a81866129c6565b945060018216600081146135b557600181146135cb576135fe565b60ff1983168652811515602002860193506135fe565b6135d485612f44565b60005b838110156135f6578154818901526001820191506020810190506135d7565b808801955050505b50505092915050565b6000815461361481612f13565b61361e818661279b565b94506001821660008114613639576001811461364f57613682565b60ff198316865281151560200286019350613682565b61365885613456565b60005b8381101561367a5781548189015260018201915060208101905061365b565b808801955050505b50505092915050565b600060608201905081810360008301526136a58186613583565b905081810360208301526136b98185613607565b905081810360408301526136cd8184613607565b9050949350505050565b7f4e487b7100000000000000000000000000000000000000000000000000000000600052602160045260246000fd5b61370f81612d5b565b82525050565b600061ffff82169050919050565b61372c81613715565b82525050565b600063ffffffff82169050919050565b61374b81613732565b82525050565b600060a0820190506137666000830188613706565b818103602083015261377881876127d6565b90506137876040830186613723565b6137946060830185613742565b6137a16080830184612d31565b9695505050505050565b6000815190506137ba816124a9565b92915050565b6000602082840312156137d6576137d5612495565b5b60006137e4848285016137ab565b91505092915050565b7f4f6e6c792063616c6c61626c65206279206f776e657200000000000000000000600082015250565b60006138236016836129c6565b915061382e826137ed565b602082019050919050565b6000602082019050818103600083015261385281613816565b9050919050565b7f43616e6e6f74207472616e7366657220746f2073656c66000000000000000000600082015250565b600061388f6017836129c6565b915061389a82613859565b602082019050919050565b600060208201905081810360008301526138be81613882565b9050919050565b6138ce81612831565b82525050565b60006020820190506138e960008301846138c5565b92915050565b60006138fa82612831565b915061390583612831565b925082820190508082111561391d5761391c6132ab565b5b92915050565b600061392e82612831565b915061393983612831565b9250828203905081811115613951576139506132ab565b5b92915050565b7f4e487b7100000000000000000000000000000000000000000000000000000000600052601260045260246000fd5b600061399182612831565b915061399c83612831565b9250826139ac576139ab613957565b5b828206905092915050565b60006139c282612831565b91506139cd83612831565b92508282026139db81612831565b915082820484148315176139f2576139f16132ab565b5b5092915050565b60008160011c9050919050565b6000808291508390505b6001851115613a5057808604811115613a2c57613a2b6132ab565b5b6001851615613a3b5780820291505b8081029050613a49856139f9565b9450613a10565b94509492505050565b600082613a695760019050613b25565b81613a775760009050613b25565b8160018114613a8d5760028114613a9757613ac6565b6001915050613b25565b60ff841115613aa957613aa86132ab565b5b8360020a915084821115613ac057613abf6132ab565b5b50613b25565b5060208310610133831016604e8410600b8410161715613afb5782820a905083811115613af657613af56132ab565b5b613b25565b613b088484846001613a06565b92509050818404811115613b1f57613b1e6132ab565b5b81810290505b9392505050565b6000613b3782612831565b9150613b4283612831565b9250613b6f7fffffffffffffffffffffffffffffffffffffffffffffffffffffffffffffffff8484613a59565b90509291505056fea26469706673582212208991d62c48ae8a850d4886cd8520a9a01b32093357bfb4ad872a8da96ef94a3464736f6c63430008130033636f6e73742070726f6d7074203d20617267735b305d6966202821736563726574732e6f70656e41694b657929207b7468726f77204572726f7228274e65656420746f20736574204f50454e41495f4b455920656e7669726f6e6d656e74207661726961626c6527297d636f6e7374206f70656e414952657175657374203d2046756e6374696f6e732e6d616b654874747052657175657374287b75726c3a202768747470733a2f2f6170692e6f70656e61692e636f6d2f76312f636861742f636f6d706c6574696f6e73272c6d6574686f643a2027504f5354272c686561646572733a207b27417574686f72697a6174696f6e273a206042656172657220247b736563726574732e6f70656e41694b65797d602c27436f6e74656e742d54797065273a20276170706c69636174696f6e2f6a736f6e277d2c646174613a207b276d6f64656c273a20276770742d346f2d6d696e69272c20276d65737361676573273a205b7b27726f6c65273a202775736572272c2027636f6e74656e74273a2070726f6d70747d5d7d7d29636f6e7374205b6f70656e4169526573706f6e73655d203d2061776169742050726f6d6973652e616c6c285b6f70656e4149526571756573745d296c657420726573756c74203d206f70656e4169526573706f6e73652e646174612e63686f696365735b305d2e6d6573736167652e636f6e74656e74726573756c74203d20726573756c742e7265706c616365416c6c28276060606a736f6e272c20272729726573756c74203d20726573756c742e7265706c616365416c6c2827606060272c2027272972657475726e2046756e6374696f6e732e656e636f6465537472696e67284a534f4e2e706172736528726573756c74292e66696e616c526573756c7429",
  "linkReferences": {},
  "deployedLinkReferences": {}
}