{
  "_format": "hh-sol-artifact-1",
  "contractName": "SheLeads",
  "sourceName": "contracts/SheLeads.sol",
  "abi": [
    {
      "inputs": [],
      "stateMutability": "nonpayable",
      "type": "constructor"
    },
    {
      "inputs": [],
      "name": "EmptyArgs",
      "type": "error"
    },
    {
      "inputs": [],
      "name": "EmptySecrets",
      "type": "error"
    },
    {
      "inputs": [],
      "name": "EmptySource",
      "type": "error"
    },
    {
      "inputs": [],
      "name": "NoInlineSecrets",
      "type": "error"
    },
    {
      "inputs": [],
      "name": "OnlyRouterCanFulfill",
      "type": "error"
    },
    {
      "inputs": [
        {
          "internalType": "bytes32",
          "name": "requestId",
          "type": "bytes32"
        }
      ],
      "name": "UnexpectedRequestID",
      "type": "error"
    },
    {
      "anonymous": false,
      "inputs": [
        {
          "indexed": true,
          "internalType": "address",
          "name": "userAddress",
          "type": "address"
        }
      ],
      "name": "AddActionPlan",
      "type": "event"
    },
    {
      "anonymous": false,
      "inputs": [
        {
          "indexed": true,
          "internalType": "address",
          "name": "userAddress",
          "type": "address"
        }
      ],
      "name": "AddProfessionalProfile",
      "type": "event"
    },
    {
      "anonymous": false,
      "inputs": [
        {
          "indexed": true,
          "internalType": "address",
          "name": "userAddress",
          "type": "address"
        }
      ],
      "name": "AddRecommendation",
      "type": "event"
    },
    {
      "anonymous": false,
      "inputs": [
        {
          "indexed": true,
          "internalType": "address",
          "name": "userAddress",
          "type": "address"
        }
      ],
      "name": "AddRecommendationActionPlan",
      "type": "event"
    },
    {
      "anonymous": false,
      "inputs": [
        {
          "indexed": true,
          "internalType": "address",
          "name": "from",
          "type": "address"
        },
        {
          "indexed": true,
          "internalType": "address",
          "name": "to",
          "type": "address"
        }
      ],
      "name": "OwnershipTransferRequested",
      "type": "event"
    },
    {
      "anonymous": false,
      "inputs": [
        {
          "indexed": true,
          "internalType": "address",
          "name": "from",
          "type": "address"
        },
        {
          "indexed": true,
          "internalType": "address",
          "name": "to",
          "type": "address"
        }
      ],
      "name": "OwnershipTransferred",
      "type": "event"
    },
    {
      "anonymous": false,
      "inputs": [
        {
          "indexed": true,
          "internalType": "bytes32",
          "name": "id",
          "type": "bytes32"
        }
      ],
      "name": "RequestFulfilled",
      "type": "event"
    },
    {
      "anonymous": false,
      "inputs": [
        {
          "indexed": true,
          "internalType": "bytes32",
          "name": "id",
          "type": "bytes32"
        }
      ],
      "name": "RequestSent",
      "type": "event"
    },
    {
      "anonymous": false,
      "inputs": [
        {
          "indexed": true,
          "internalType": "bytes32",
          "name": "requestId",
          "type": "bytes32"
        },
        {
          "indexed": false,
          "internalType": "string",
          "name": "result",
          "type": "string"
        },
        {
          "indexed": false,
          "internalType": "bytes",
          "name": "response",
          "type": "bytes"
        },
        {
          "indexed": false,
          "internalType": "bytes",
          "name": "err",
          "type": "bytes"
        }
      ],
      "name": "Response",
      "type": "event"
    },
    {
      "inputs": [],
      "name": "acceptOwnership",
      "outputs": [],
      "stateMutability": "nonpayable",
      "type": "function"
    },
    {
      "inputs": [
        {
          "internalType": "uint256",
          "name": "_recommendationId",
          "type": "uint256"
        },
        {
          "internalType": "string",
          "name": "_content",
          "type": "string"
        }
      ],
      "name": "addActionPlan",
      "outputs": [],
      "stateMutability": "nonpayable",
      "type": "function"
    },
    {
      "inputs": [
        {
          "internalType": "string",
          "name": "_content",
          "type": "string"
        }
      ],
      "name": "addProfessionalProfile",
      "outputs": [],
      "stateMutability": "nonpayable",
      "type": "function"
    },
    {
      "inputs": [
        {
          "internalType": "uint256",
          "name": "_professionalProfileId",
          "type": "uint256"
        },
        {
          "internalType": "string",
          "name": "_content",
          "type": "string"
        }
      ],
      "name": "addRecommendation",
      "outputs": [],
      "stateMutability": "nonpayable",
      "type": "function"
    },
    {
      "inputs": [
        {
          "internalType": "uint256",
          "name": "_professionalProfileId",
          "type": "uint256"
        },
        {
          "internalType": "string",
          "name": "_contentRecommendation",
          "type": "string"
        },
        {
          "internalType": "string",
          "name": "_contentActionPlan",
          "type": "string"
        }
      ],
      "name": "addRecommendationActionPlan",
      "outputs": [],
      "stateMutability": "nonpayable",
      "type": "function"
    },
    {
      "inputs": [
        {
          "internalType": "uint256",
          "name": "_recommendationId",
          "type": "uint256"
        }
      ],
      "name": "getActionPlan",
      "outputs": [
        {
          "internalType": "uint256",
          "name": "",
          "type": "uint256"
        }
      ],
      "stateMutability": "view",
      "type": "function"
    },
    {
      "inputs": [],
      "name": "getMyActionPlan",
      "outputs": [
        {
          "components": [
            {
              "internalType": "uint256",
              "name": "id",
              "type": "uint256"
            },
            {
              "internalType": "string",
              "name": "content",
              "type": "string"
            },
            {
              "internalType": "uint256",
              "name": "createdAt",
              "type": "uint256"
            }
          ],
          "internalType": "struct SheLeads.ActionPlan",
          "name": "",
          "type": "tuple"
        }
      ],
      "stateMutability": "view",
      "type": "function"
    },
    {
      "inputs": [],
      "name": "getProfessionalProfile",
      "outputs": [
        {
          "components": [
            {
              "internalType": "uint256",
              "name": "id",
              "type": "uint256"
            },
            {
              "internalType": "string",
              "name": "content",
              "type": "string"
            },
            {
              "internalType": "uint256",
              "name": "createdAt",
              "type": "uint256"
            }
          ],
          "internalType": "struct SheLeads.ProfessionalProfile",
          "name": "",
          "type": "tuple"
        }
      ],
      "stateMutability": "view",
      "type": "function"
    },
    {
      "inputs": [
        {
          "internalType": "uint256",
          "name": "_professionalProfile",
          "type": "uint256"
        }
      ],
      "name": "getRecommendation",
      "outputs": [
        {
          "components": [
            {
              "internalType": "uint256",
              "name": "id",
              "type": "uint256"
            },
            {
              "internalType": "string",
              "name": "content",
              "type": "string"
            },
            {
              "internalType": "uint256",
              "name": "createdAt",
              "type": "uint256"
            }
          ],
          "internalType": "struct SheLeads.Recommendation",
          "name": "",
          "type": "tuple"
        }
      ],
      "stateMutability": "view",
      "type": "function"
    },
    {
      "inputs": [],
      "name": "getRecommendations",
      "outputs": [
        {
          "components": [
            {
              "internalType": "uint256",
              "name": "id",
              "type": "uint256"
            },
            {
              "internalType": "string",
              "name": "content",
              "type": "string"
            },
            {
              "internalType": "uint256",
              "name": "createdAt",
              "type": "uint256"
            }
          ],
          "internalType": "struct SheLeads.Recommendation[]",
          "name": "",
          "type": "tuple[]"
        }
      ],
      "stateMutability": "view",
      "type": "function"
    },
    {
      "inputs": [
        {
          "internalType": "bytes32",
          "name": "requestId",
          "type": "bytes32"
        },
        {
          "internalType": "bytes",
          "name": "response",
          "type": "bytes"
        },
        {
          "internalType": "bytes",
          "name": "err",
          "type": "bytes"
        }
      ],
      "name": "handleOracleFulfillment",
      "outputs": [],
      "stateMutability": "nonpayable",
      "type": "function"
    },
    {
      "inputs": [],
      "name": "owner",
      "outputs": [
        {
          "internalType": "address",
          "name": "",
          "type": "address"
        }
      ],
      "stateMutability": "view",
      "type": "function"
    },
    {
      "inputs": [],
      "name": "result",
      "outputs": [
        {
          "internalType": "string",
          "name": "",
          "type": "string"
        }
      ],
      "stateMutability": "view",
      "type": "function"
    },
    {
      "inputs": [],
      "name": "s_lastError",
      "outputs": [
        {
          "internalType": "bytes",
          "name": "",
          "type": "bytes"
        }
      ],
      "stateMutability": "view",
      "type": "function"
    },
    {
      "inputs": [],
      "name": "s_lastRequestId",
      "outputs": [
        {
          "internalType": "bytes32",
          "name": "",
          "type": "bytes32"
        }
      ],
      "stateMutability": "view",
      "type": "function"
    },
    {
      "inputs": [],
      "name": "s_lastResponse",
      "outputs": [
        {
          "internalType": "bytes",
          "name": "",
          "type": "bytes"
        }
      ],
      "stateMutability": "view",
      "type": "function"
    },
    {
      "inputs": [
        {
          "internalType": "uint64",
          "name": "subscriptionId",
          "type": "uint64"
        },
        {
          "internalType": "bytes",
          "name": "encryptedSecrets",
          "type": "bytes"
        },
        {
          "internalType": "string[]",
          "name": "args",
          "type": "string[]"
        }
      ],
      "name": "sendRequest",
      "outputs": [
        {
          "internalType": "bytes32",
          "name": "requestId",
          "type": "bytes32"
        }
      ],
      "stateMutability": "nonpayable",
      "type": "function"
    },
    {
      "inputs": [
        {
          "internalType": "address",
          "name": "to",
          "type": "address"
        }
      ],
      "name": "transferOwnership",
      "outputs": [],
      "stateMutability": "nonpayable",
      "type": "function"
    }
  ],
  "bytecode": "0x60a060405273f9b8fc078197181c841c296c876945aaa425b278600e60006101000a81548173ffffffffffffffffffffffffffffffffffffffff021916908373ffffffffffffffffffffffffffffffffffffffff160217905550604051806102c0016040528061028a81526020016200420e61028a9139600f9081620000869190620005e7565b50620493e0601060006101000a81548163ffffffff021916908363ffffffff1602179055507f66756e2d626173652d7365706f6c69612d31000000000000000000000000000060001b601155348015620000df57600080fd5b5033806000600e60009054906101000a900473ffffffffffffffffffffffffffffffffffffffff168073ffffffffffffffffffffffffffffffffffffffff1660808173ffffffffffffffffffffffffffffffffffffffff168152505050600073ffffffffffffffffffffffffffffffffffffffff168273ffffffffffffffffffffffffffffffffffffffff1603620001ae576040517f08c379a0000000000000000000000000000000000000000000000000000000008152600401620001a5906200072f565b60405180910390fd5b816000806101000a81548173ffffffffffffffffffffffffffffffffffffffff021916908373ffffffffffffffffffffffffffffffffffffffff160217905550600073ffffffffffffffffffffffffffffffffffffffff168173ffffffffffffffffffffffffffffffffffffffff1614620002355762000234816200023e60201b60201c565b5b505050620007c3565b3373ffffffffffffffffffffffffffffffffffffffff168173ffffffffffffffffffffffffffffffffffffffff1603620002af576040517f08c379a0000000000000000000000000000000000000000000000000000000008152600401620002a690620007a1565b60405180910390fd5b80600160006101000a81548173ffffffffffffffffffffffffffffffffffffffff021916908373ffffffffffffffffffffffffffffffffffffffff1602179055508073ffffffffffffffffffffffffffffffffffffffff1660008054906101000a900473ffffffffffffffffffffffffffffffffffffffff1673ffffffffffffffffffffffffffffffffffffffff167fed8889f560326eb138920d842192f0eb3dd22b4f139c87a2c57538e05bae127860405160405180910390a350565b600081519050919050565b7f4e487b7100000000000000000000000000000000000000000000000000000000600052604160045260246000fd5b7f4e487b7100000000000000000000000000000000000000000000000000000000600052602260045260246000fd5b60006002820490506001821680620003ef57607f821691505b602082108103620004055762000404620003a7565b5b50919050565b60008190508160005260206000209050919050565b60006020601f8301049050919050565b600082821b905092915050565b6000600883026200046f7fffffffffffffffffffffffffffffffffffffffffffffffffffffffffffffffff8262000430565b6200047b868362000430565b95508019841693508086168417925050509392505050565b6000819050919050565b6000819050919050565b6000620004c8620004c2620004bc8462000493565b6200049d565b62000493565b9050919050565b6000819050919050565b620004e483620004a7565b620004fc620004f382620004cf565b8484546200043d565b825550505050565b600090565b6200051362000504565b62000520818484620004d9565b505050565b5b8181101562000548576200053c60008262000509565b60018101905062000526565b5050565b601f821115620005975762000561816200040b565b6200056c8462000420565b810160208510156200057c578190505b620005946200058b8562000420565b83018262000525565b50505b505050565b600082821c905092915050565b6000620005bc600019846008026200059c565b1980831691505092915050565b6000620005d78383620005a9565b9150826002028217905092915050565b620005f2826200036d565b67ffffffffffffffff8111156200060e576200060d62000378565b5b6200061a8254620003d6565b620006278282856200054c565b600060209050601f8311600181146200065f57600084156200064a578287015190505b620006568582620005c9565b865550620006c6565b601f1984166200066f866200040b565b60005b82811015620006995784890151825560018201915060208501945060208101905062000672565b86831015620006b95784890151620006b5601f891682620005a9565b8355505b6001600288020188555050505b505050505050565b600082825260208201905092915050565b7f43616e6e6f7420736574206f776e657220746f207a65726f0000000000000000600082015250565b600062000717601883620006ce565b91506200072482620006df565b602082019050919050565b600060208201905081810360008301526200074a8162000708565b9050919050565b7f43616e6e6f74207472616e7366657220746f2073656c66000000000000000000600082015250565b600062000789601783620006ce565b9150620007968262000751565b602082019050919050565b60006020820190508181036000830152620007bc816200077a565b9050919050565b608051613a28620007e66000396000818161034f01526119380152613a286000f3fe608060405234801561001057600080fd5b50600436106101165760003560e01c8063876a72d7116100a2578063b1e2174911610071578063b1e21749146102a9578063b40aab51146102c7578063dd23f8ed146102f7578063f0a32d7e14610313578063f2fde38b1461033157610116565b8063876a72d7146102215780638da5cb5b1461023f5780639168e82c1461025d578063a1536afe1461027957610116565b80634b0795a8116100e95780634b0795a8146101a15780635154da5a146101bf57806365372147146101db578063759f78da146101f957806379ba50971461021757610116565b80630ca761751461011b5780632f7474a1146101375780633944ea3a146101535780633e8c352714610171575b600080fd5b61013560048036038101906101309190612496565b61034d565b005b610151600480360381019061014c91906125c2565b61040f565b005b61015b610573565b604051610168919061268a565b60405180910390f35b61018b600480360381019061018691906126e2565b610601565b604051610198919061271e565b60405180910390f35b6101a961061e565b6040516101b6919061268a565b60405180910390f35b6101d960048036038101906101d49190612739565b6106ac565b005b6101e3610767565b6040516101f091906127ea565b60405180910390f35b6102016107f5565b60405161020e9190612977565b60405180910390f35b61021f610b09565b005b610229610c9e565b60405161023691906129e9565b60405180910390f35b610247610db4565b6040516102549190612a4c565b60405180910390f35b61027760048036038101906102729190612a67565b610ddd565b005b610293600480360381019061028e91906126e2565b610f51565b6040516102a09190612b42565b60405180910390f35b6102b1611024565b6040516102be9190612b73565b60405180910390f35b6102e160048036038101906102dc9190612c2e565b61102a565b6040516102ee9190612b73565b60405180910390f35b610311600480360381019061030c9190612739565b611157565b005b61031b611256565b6040516103289190612d0e565b60405180910390f35b61034b60048036038101906103469190612d5c565b611353565b005b7f000000000000000000000000000000000000000000000000000000000000000073ffffffffffffffffffffffffffffffffffffffff163373ffffffffffffffffffffffffffffffffffffffff16146103d2576040517fc6829f8300000000000000000000000000000000000000000000000000000000815260040160405180910390fd5b6103dd838383611367565b827f85e1543bf2f84fe80c6badbce3648c8539ad1df4d2b3d822938ca0538be727e660405160405180910390a2505050565b600061041b6002611421565b905080600860003373ffffffffffffffffffffffffffffffffffffffff1673ffffffffffffffffffffffffffffffffffffffff16815260200190815260200160002081905550600960003373ffffffffffffffffffffffffffffffffffffffff1673ffffffffffffffffffffffffffffffffffffffff168152602001908152602001600020819080600181540180825580915050600190039060005260206000200160009091909190915055604051806060016040528082815260200183815260200142815250600a60008381526020019081526020016000206000820151816000015560208201518160010190816105149190612f95565b506040820151816002015590505061052c600261142f565b3373ffffffffffffffffffffffffffffffffffffffff167fc7082cdecc2539ec9a36307102780434b5e042a0ef8edb52cbe8a12a291a8d0260405160405180910390a25050565b6006805461058090612db8565b80601f01602080910402602001604051908101604052809291908181526020018280546105ac90612db8565b80156105f95780601f106105ce576101008083540402835291602001916105f9565b820191906000526020600020905b8154815290600101906020018083116105dc57829003601f168201915b505050505081565b6000600c6000838152602001908152602001600020549050919050565b6007805461062b90612db8565b80601f016020809104026020016040519081016040528092919081815260200182805461065790612db8565b80156106a45780601f10610679576101008083540402835291602001916106a4565b820191906000526020600020905b81548152906001019060200180831161068757829003601f168201915b505050505081565b60006106b86003611421565b9050604051806060016040528082815260200183815260200142815250600b60008581526020019081526020016000206000820151816000015560208201518160010190816107079190612f95565b506040820151816002015590505061071f600361142f565b3373ffffffffffffffffffffffffffffffffffffffff167fadb097085cd54defd6de7b9090ce17112766c55f14ddb3121c252f9813aeb21360405160405180910390a2505050565b6012805461077490612db8565b80601f01602080910402602001604051908101604052809291908181526020018280546107a090612db8565b80156107ed5780601f106107c2576101008083540402835291602001916107ed565b820191906000526020600020905b8154815290600101906020018083116107d057829003601f168201915b505050505081565b60606000600960003373ffffffffffffffffffffffffffffffffffffffff1673ffffffffffffffffffffffffffffffffffffffff16815260200190815260200160002080548060200260200160405190810160405280929190818152602001828054801561088257602002820191906000526020600020905b81548152602001906001019080831161086e575b505050505090506000805b8251811015610919576040518060200160405280600081525080519060200120600b60008584815181106108c4576108c3613067565b5b602002602001015181526020019081526020016000206001016040516108ea9190613139565b6040518091039020146109065781806109029061317f565b9250505b80806109119061317f565b91505061088d565b5060008167ffffffffffffffff8111156109365761093561236b565b5b60405190808252806020026020018201604052801561096f57816020015b61095c6121f7565b8152602001906001900390816109545790505b5090506000805b8451811015610afe576040518060200160405280600081525080519060200120600b60008784815181106109ad576109ac613067565b5b602002602001015181526020019081526020016000206001016040516109d39190613139565b604051809103902014610aeb57600b60008683815181106109f7576109f6613067565b5b6020026020010151815260200190815260200160002060405180606001604052908160008201548152602001600182018054610a3290612db8565b80601f0160208091040260200160405190810160405280929190818152602001828054610a5e90612db8565b8015610aab5780601f10610a8057610100808354040283529160200191610aab565b820191906000526020600020905b815481529060010190602001808311610a8e57829003601f168201915b50505050508152602001600282015481525050838381518110610ad157610ad0613067565b5b60200260200101819052508180610ae79061317f565b9250505b8080610af69061317f565b915050610976565b508194505050505090565b600160009054906101000a900473ffffffffffffffffffffffffffffffffffffffff1673ffffffffffffffffffffffffffffffffffffffff163373ffffffffffffffffffffffffffffffffffffffff1614610b99576040517f08c379a0000000000000000000000000000000000000000000000000000000008152600401610b9090613213565b60405180910390fd5b60008060009054906101000a900473ffffffffffffffffffffffffffffffffffffffff169050336000806101000a81548173ffffffffffffffffffffffffffffffffffffffff021916908373ffffffffffffffffffffffffffffffffffffffff1602179055506000600160006101000a81548173ffffffffffffffffffffffffffffffffffffffff021916908373ffffffffffffffffffffffffffffffffffffffff1602179055503373ffffffffffffffffffffffffffffffffffffffff168173ffffffffffffffffffffffffffffffffffffffff167f8be0079c531659141344cd1fd0a4f28419497f9722a3daafe3b4186f6b6457e060405160405180910390a350565b610ca6612218565b6000600860003373ffffffffffffffffffffffffffffffffffffffff1673ffffffffffffffffffffffffffffffffffffffff168152602001908152602001600020549050600a600082815260200190815260200160002060405180606001604052908160008201548152602001600182018054610d2290612db8565b80601f0160208091040260200160405190810160405280929190818152602001828054610d4e90612db8565b8015610d9b5780601f10610d7057610100808354040283529160200191610d9b565b820191906000526020600020905b815481529060010190602001808311610d7e57829003601f168201915b5050505050815260200160028201548152505091505090565b60008060009054906101000a900473ffffffffffffffffffffffffffffffffffffffff16905090565b6000610de96003611421565b9050604051806060016040528082815260200184815260200142815250600b6000868152602001908152602001600020600082015181600001556020820151816001019081610e389190612f95565b50604082015181600201559050506000610e526004611421565b905080600c600084815260200190815260200160002081905550604051806060016040528082815260200184815260200142815250600d60003373ffffffffffffffffffffffffffffffffffffffff1673ffffffffffffffffffffffffffffffffffffffff168152602001908152602001600020600082015181600001556020820151816001019081610ee59190612f95565b5060408201518160020155905050610efd600461142f565b610f07600361142f565b3373ffffffffffffffffffffffffffffffffffffffff167f61a9cb4f436c185d72b15d73d5219acaeaea0a2ffa2fbe94adbba8f0f0bd3fde60405160405180910390a25050505050565b610f596121f7565b600b600083815260200190815260200160002060405180606001604052908160008201548152602001600182018054610f9190612db8565b80601f0160208091040260200160405190810160405280929190818152602001828054610fbd90612db8565b801561100a5780601f10610fdf5761010080835404028352916020019161100a565b820191906000526020600020905b815481529060010190602001808311610fed57829003601f168201915b505050505081526020016002820154815250509050919050565b60055481565b6000611034612239565b6110d1600f805461104490612db8565b80601f016020809104026020016040519081016040528092919081815260200182805461107090612db8565b80156110bd5780601f10611092576101008083540402835291602001916110bd565b820191906000526020600020905b8154815290600101906020018083116110a057829003601f168201915b50505050508261144590919063ffffffff16565b60008484905011156110fd576110fc8484906110ed91906132e6565b8261145690919063ffffffff16565b5b60008551111561111b5761111a858261149e90919063ffffffff16565b5b61114361112782611517565b87601060009054906101000a900463ffffffff16601154611933565b600581905550600554915050949350505050565b60006111636004611421565b905080600c600085815260200190815260200160002081905550604051806060016040528082815260200183815260200142815250600d60003373ffffffffffffffffffffffffffffffffffffffff1673ffffffffffffffffffffffffffffffffffffffff1681526020019081526020016000206000820151816000015560208201518160010190816111f69190612f95565b506040820151816002015590505061120e600461142f565b3373ffffffffffffffffffffffffffffffffffffffff167f2e666739184a056dc66b03a9cecfbadafdf4f1b649dec56336289578b834771b60405160405180910390a2505050565b61125e6122ab565b600d60003373ffffffffffffffffffffffffffffffffffffffff1673ffffffffffffffffffffffffffffffffffffffff168152602001908152602001600020604051806060016040529081600082015481526020016001820180546112c290612db8565b80601f01602080910402602001604051908101604052809291908181526020018280546112ee90612db8565b801561133b5780601f106113105761010080835404028352916020019161133b565b820191906000526020600020905b81548152906001019060200180831161131e57829003601f168201915b50505050508152602001600282015481525050905090565b61135b611a16565b61136481611aa6565b50565b82600554146113ad57826040517fd068bf5b0000000000000000000000000000000000000000000000000000000081526004016113a49190612b73565b60405180910390fd5b81600690816113bc9190613356565b5081601290816113cc9190612f95565b5080600790816113dc9190613356565b50827f160ed0aaffbef6885155188b91459cb5a97d5daadccf7561d8c46deea6641b5060126006600760405161141493929190613530565b60405180910390a2505050565b600081600001549050919050565b6001816000016000828254019250508190555050565b6114528260008084611bd2565b5050565b6000815103611491576040517ffe936cb700000000000000000000000000000000000000000000000000000000815260040160405180910390fd5b808260a001819052505050565b60008151036114d9576040517fe889636f00000000000000000000000000000000000000000000000000000000815260040160405180910390fd5b6001826020019060028111156114f2576114f161357c565b5b908160028111156115065761150561357c565b5b815250508082608001819052505050565b60606000611526610100611c7c565b90506115706040518060400160405280600c81526020017f636f64654c6f636174696f6e000000000000000000000000000000000000000081525082611ca390919063ffffffff16565b6115998360000151600281111561158a5761158961357c565b5b82611ccc90919063ffffffff16565b6115e16040518060400160405280600881526020017f6c616e677561676500000000000000000000000000000000000000000000000081525082611ca390919063ffffffff16565b61160a836040015160008111156115fb576115fa61357c565b5b82611ccc90919063ffffffff16565b6116526040518060400160405280600681526020017f736f75726365000000000000000000000000000000000000000000000000000081525082611ca390919063ffffffff16565b611669836060015182611ca390919063ffffffff16565b60008360a00151511115611725576116bf6040518060400160405280600481526020017f617267730000000000000000000000000000000000000000000000000000000081525082611ca390919063ffffffff16565b6116c881611d1c565b60005b8360a001515181101561171a576117098460a0015182815181106116f2576116f1613067565b5b602002602001015183611ca390919063ffffffff16565b806117139061317f565b90506116cb565b5061172481611d44565b5b6000836080015151111561186657600060028111156117475761174661357c565b5b8360200151600281111561175e5761175d61357c565b5b03611795576040517fa80d31f700000000000000000000000000000000000000000000000000000000815260040160405180910390fd5b6117dd6040518060400160405280600f81526020017f736563726574734c6f636174696f6e000000000000000000000000000000000081525082611ca390919063ffffffff16565b611806836020015160028111156117f7576117f661357c565b5b82611ccc90919063ffffffff16565b61184e6040518060400160405280600781526020017f736563726574730000000000000000000000000000000000000000000000000081525082611ca390919063ffffffff16565b611865836080015182611d6c90919063ffffffff16565b5b60008360c00151511115611922576118bc6040518060400160405280600981526020017f627974657341726773000000000000000000000000000000000000000000000081525082611ca390919063ffffffff16565b6118c581611d1c565b60005b8360c0015151811015611917576119068460c0015182815181106118ef576118ee613067565b5b602002602001015183611d6c90919063ffffffff16565b806119109061317f565b90506118c8565b5061192181611d44565b5b806000015160000151915050919050565b6000807f000000000000000000000000000000000000000000000000000000000000000073ffffffffffffffffffffffffffffffffffffffff1663461d27628688600188886040518663ffffffff1660e01b81526004016119989594939291906135f6565b6020604051808303816000875af11580156119b7573d6000803e3d6000fd5b505050506040513d601f19601f820116820180604052508101906119db9190613665565b9050807f1131472297a800fee664d1d89cfa8f7676ff07189ecc53f80bbb5f4969099db860405160405180910390a280915050949350505050565b60008054906101000a900473ffffffffffffffffffffffffffffffffffffffff1673ffffffffffffffffffffffffffffffffffffffff163373ffffffffffffffffffffffffffffffffffffffff1614611aa4576040517f08c379a0000000000000000000000000000000000000000000000000000000008152600401611a9b906136de565b60405180910390fd5b565b3373ffffffffffffffffffffffffffffffffffffffff168173ffffffffffffffffffffffffffffffffffffffff1603611b14576040517f08c379a0000000000000000000000000000000000000000000000000000000008152600401611b0b9061374a565b60405180910390fd5b80600160006101000a81548173ffffffffffffffffffffffffffffffffffffffff021916908373ffffffffffffffffffffffffffffffffffffffff1602179055508073ffffffffffffffffffffffffffffffffffffffff1660008054906101000a900473ffffffffffffffffffffffffffffffffffffffff1673ffffffffffffffffffffffffffffffffffffffff167fed8889f560326eb138920d842192f0eb3dd22b4f139c87a2c57538e05bae127860405160405180910390a350565b6000815103611c0d576040517f22ce3edd00000000000000000000000000000000000000000000000000000000815260040160405180910390fd5b8284600001906002811115611c2557611c2461357c565b5b90816002811115611c3957611c3861357c565b5b815250508184604001906000811115611c5557611c5461357c565b5b90816000811115611c6957611c6861357c565b5b8152505080846060018190525050505050565b611c846122cc565b611c92816000015183611d95565b506000816020018181525050919050565b611cb08260038351611e0e565b611cc7818360000151611fb790919063ffffffff16565b505050565b611cee60026005600660ff16901b178360000151611fd390919063ffffffff16565b50611d188282604051602001611d04919061271e565b604051602081830303815290604052611d6c565b5050565b611d2781600461203d565b600181602001818151611d3a919061376a565b9150818152505050565b611d4f81600761203d565b600181602001818151611d62919061379e565b9150818152505050565b611d798260028351611e0e565b611d90818360000151611fb790919063ffffffff16565b505050565b611d9d6122ec565b6000602083611dac9190613801565b14611dd857602082611dbe9190613801565b6020611dca919061379e565b82611dd5919061376a565b91505b818360200181815250506040518084526000815282810160200181811015611dff57600080fd5b80604052505082905092915050565b60178167ffffffffffffffff1611611e4957611e438160058460ff16901b60ff16178460000151611fd390919063ffffffff16565b50611fb2565b60ff8167ffffffffffffffff1611611ea757611e7c601860058460ff16901b178460000151611fd390919063ffffffff16565b50611ea18167ffffffffffffffff16600185600001516120639092919063ffffffff16565b50611fb1565b61ffff8167ffffffffffffffff1611611f0657611edb601960058460ff16901b178460000151611fd390919063ffffffff16565b50611f008167ffffffffffffffff16600285600001516120639092919063ffffffff16565b50611fb0565b63ffffffff8167ffffffffffffffff1611611f6757611f3c601a60058460ff16901b178460000151611fd390919063ffffffff16565b50611f618167ffffffffffffffff16600485600001516120639092919063ffffffff16565b50611faf565b611f88601b60058460ff16901b178460000151611fd390919063ffffffff16565b50611fad8167ffffffffffffffff16600885600001516120639092919063ffffffff16565b505b5b5b5b505050565b611fbf6122ec565b611fcb838384516120f0565b905092915050565b611fdb6122ec565b600083600001515190506000600182611ff4919061376a565b90508460200151821061201857612017856002836120129190613832565b6121d3565b5b84516020838201018581538151831115612030578282525b5050849250505092915050565b61205e601f60058360ff16901b178360000151611fd390919063ffffffff16565b505050565b61206b6122ec565b6000846000015151905060008184612083919061376a565b905085602001518111156120a8576120a7866002836120a29190613832565b6121d3565b5b60006001856101006120ba91906139a7565b6120c4919061379e565b9050865182810187831982511617815281518411156120e1578382525b50508693505050509392505050565b6120f86122ec565b825182111561210657600080fd5b600084600001515190506000838261211e919061376a565b90508560200151811115612143576121428660028361213d9190613832565b6121d3565b5b6000808751805185602083010193508085111561215e578482525b60208901925050505b602086106121a55780518252602082612180919061376a565b915060208161218f919061376a565b905060208661219e919061379e565b9550612167565b60006001876020036101000a0390508019825116818451168181178552505050879450505050509392505050565b6000826000015190506121e68383611d95565b506121f18382611fb7565b50505050565b60405180606001604052806000815260200160608152602001600081525090565b60405180606001604052806000815260200160608152602001600081525090565b6040518060e00160405280600060028111156122585761225761357c565b5b8152602001600060028111156122715761227061357c565b5b81526020016000808111156122895761228861357c565b5b8152602001606081526020016060815260200160608152602001606081525090565b60405180606001604052806000815260200160608152602001600081525090565b60405180604001604052806122df6122ec565b8152602001600081525090565b604051806040016040528060608152602001600081525090565b6000604051905090565b600080fd5b600080fd5b6000819050919050565b61232d8161231a565b811461233857600080fd5b50565b60008135905061234a81612324565b92915050565b600080fd5b600080fd5b6000601f19601f8301169050919050565b7f4e487b7100000000000000000000000000000000000000000000000000000000600052604160045260246000fd5b6123a38261235a565b810181811067ffffffffffffffff821117156123c2576123c161236b565b5b80604052505050565b60006123d5612306565b90506123e1828261239a565b919050565b600067ffffffffffffffff8211156124015761240061236b565b5b61240a8261235a565b9050602081019050919050565b82818337600083830152505050565b6000612439612434846123e6565b6123cb565b90508281526020810184848401111561245557612454612355565b5b612460848285612417565b509392505050565b600082601f83011261247d5761247c612350565b5b813561248d848260208601612426565b91505092915050565b6000806000606084860312156124af576124ae612310565b5b60006124bd8682870161233b565b935050602084013567ffffffffffffffff8111156124de576124dd612315565b5b6124ea86828701612468565b925050604084013567ffffffffffffffff81111561250b5761250a612315565b5b61251786828701612468565b9150509250925092565b600067ffffffffffffffff82111561253c5761253b61236b565b5b6125458261235a565b9050602081019050919050565b600061256561256084612521565b6123cb565b90508281526020810184848401111561258157612580612355565b5b61258c848285612417565b509392505050565b600082601f8301126125a9576125a8612350565b5b81356125b9848260208601612552565b91505092915050565b6000602082840312156125d8576125d7612310565b5b600082013567ffffffffffffffff8111156125f6576125f5612315565b5b61260284828501612594565b91505092915050565b600081519050919050565b600082825260208201905092915050565b60005b8381101561264557808201518184015260208101905061262a565b60008484015250505050565b600061265c8261260b565b6126668185612616565b9350612676818560208601612627565b61267f8161235a565b840191505092915050565b600060208201905081810360008301526126a48184612651565b905092915050565b6000819050919050565b6126bf816126ac565b81146126ca57600080fd5b50565b6000813590506126dc816126b6565b92915050565b6000602082840312156126f8576126f7612310565b5b6000612706848285016126cd565b91505092915050565b612718816126ac565b82525050565b6000602082019050612733600083018461270f565b92915050565b600080604083850312156127505761274f612310565b5b600061275e858286016126cd565b925050602083013567ffffffffffffffff81111561277f5761277e612315565b5b61278b85828601612594565b9150509250929050565b600081519050919050565b600082825260208201905092915050565b60006127bc82612795565b6127c681856127a0565b93506127d6818560208601612627565b6127df8161235a565b840191505092915050565b6000602082019050818103600083015261280481846127b1565b905092915050565b600081519050919050565b600082825260208201905092915050565b6000819050602082019050919050565b612841816126ac565b82525050565b600082825260208201905092915050565b600061286382612795565b61286d8185612847565b935061287d818560208601612627565b6128868161235a565b840191505092915050565b60006060830160008301516128a96000860182612838565b50602083015184820360208601526128c18282612858565b91505060408301516128d66040860182612838565b508091505092915050565b60006128ed8383612891565b905092915050565b6000602082019050919050565b600061290d8261280c565b6129178185612817565b93508360208202850161292985612828565b8060005b85811015612965578484038952815161294685826128e1565b9450612951836128f5565b925060208a0199505060018101905061292d565b50829750879550505050505092915050565b600060208201905081810360008301526129918184612902565b905092915050565b60006060830160008301516129b16000860182612838565b50602083015184820360208601526129c98282612858565b91505060408301516129de6040860182612838565b508091505092915050565b60006020820190508181036000830152612a038184612999565b905092915050565b600073ffffffffffffffffffffffffffffffffffffffff82169050919050565b6000612a3682612a0b565b9050919050565b612a4681612a2b565b82525050565b6000602082019050612a616000830184612a3d565b92915050565b600080600060608486031215612a8057612a7f612310565b5b6000612a8e868287016126cd565b935050602084013567ffffffffffffffff811115612aaf57612aae612315565b5b612abb86828701612594565b925050604084013567ffffffffffffffff811115612adc57612adb612315565b5b612ae886828701612594565b9150509250925092565b6000606083016000830151612b0a6000860182612838565b5060208301518482036020860152612b228282612858565b9150506040830151612b376040860182612838565b508091505092915050565b60006020820190508181036000830152612b5c8184612af2565b905092915050565b612b6d8161231a565b82525050565b6000602082019050612b886000830184612b64565b92915050565b600067ffffffffffffffff82169050919050565b612bab81612b8e565b8114612bb657600080fd5b50565b600081359050612bc881612ba2565b92915050565b600080fd5b600080fd5b60008083601f840112612bee57612bed612350565b5b8235905067ffffffffffffffff811115612c0b57612c0a612bce565b5b602083019150836020820283011115612c2757612c26612bd3565b5b9250929050565b60008060008060608587031215612c4857612c47612310565b5b6000612c5687828801612bb9565b945050602085013567ffffffffffffffff811115612c7757612c76612315565b5b612c8387828801612468565b935050604085013567ffffffffffffffff811115612ca457612ca3612315565b5b612cb087828801612bd8565b925092505092959194509250565b6000606083016000830151612cd66000860182612838565b5060208301518482036020860152612cee8282612858565b9150506040830151612d036040860182612838565b508091505092915050565b60006020820190508181036000830152612d288184612cbe565b905092915050565b612d3981612a2b565b8114612d4457600080fd5b50565b600081359050612d5681612d30565b92915050565b600060208284031215612d7257612d71612310565b5b6000612d8084828501612d47565b91505092915050565b7f4e487b7100000000000000000000000000000000000000000000000000000000600052602260045260246000fd5b60006002820490506001821680612dd057607f821691505b602082108103612de357612de2612d89565b5b50919050565b60008190508160005260206000209050919050565b60006020601f8301049050919050565b600082821b905092915050565b600060088302612e4b7fffffffffffffffffffffffffffffffffffffffffffffffffffffffffffffffff82612e0e565b612e558683612e0e565b95508019841693508086168417925050509392505050565b6000819050919050565b6000612e92612e8d612e88846126ac565b612e6d565b6126ac565b9050919050565b6000819050919050565b612eac83612e77565b612ec0612eb882612e99565b848454612e1b565b825550505050565b600090565b612ed5612ec8565b612ee0818484612ea3565b505050565b5b81811015612f0457612ef9600082612ecd565b600181019050612ee6565b5050565b601f821115612f4957612f1a81612de9565b612f2384612dfe565b81016020851015612f32578190505b612f46612f3e85612dfe565b830182612ee5565b50505b505050565b600082821c905092915050565b6000612f6c60001984600802612f4e565b1980831691505092915050565b6000612f858383612f5b565b9150826002028217905092915050565b612f9e82612795565b67ffffffffffffffff811115612fb757612fb661236b565b5b612fc18254612db8565b612fcc828285612f08565b600060209050601f831160018114612fff5760008415612fed578287015190505b612ff78582612f79565b86555061305f565b601f19841661300d86612de9565b60005b8281101561303557848901518255600182019150602085019450602081019050613010565b86831015613052578489015161304e601f891682612f5b565b8355505b6001600288020188555050505b505050505050565b7f4e487b7100000000000000000000000000000000000000000000000000000000600052603260045260246000fd5b600081905092915050565b60008190508160005260206000209050919050565b600081546130c381612db8565b6130cd8186613096565b945060018216600081146130e857600181146130fd57613130565b60ff1983168652811515820286019350613130565b613106856130a1565b60005b8381101561312857815481890152600182019150602081019050613109565b838801955050505b50505092915050565b600061314582846130b6565b915081905092915050565b7f4e487b7100000000000000000000000000000000000000000000000000000000600052601160045260246000fd5b600061318a826126ac565b91507fffffffffffffffffffffffffffffffffffffffffffffffffffffffffffffffff82036131bc576131bb613150565b5b600182019050919050565b7f4d7573742062652070726f706f736564206f776e657200000000000000000000600082015250565b60006131fd6016836127a0565b9150613208826131c7565b602082019050919050565b6000602082019050818103600083015261322c816131f0565b9050919050565b600067ffffffffffffffff82111561324e5761324d61236b565b5b602082029050602081019050919050565b600061327261326d84613233565b6123cb565b9050808382526020820190506020840283018581111561329557613294612bd3565b5b835b818110156132dc57803567ffffffffffffffff8111156132ba576132b9612350565b5b8086016132c78982612594565b85526020850194505050602081019050613297565b5050509392505050565b60006132f336848461325f565b905092915050565b60008190508160005260206000209050919050565b601f82111561335157613322816132fb565b61332b84612dfe565b8101602085101561333a578190505b61334e61334685612dfe565b830182612ee5565b50505b505050565b61335f8261260b565b67ffffffffffffffff8111156133785761337761236b565b5b6133828254612db8565b61338d828285613310565b600060209050601f8311600181146133c057600084156133ae578287015190505b6133b88582612f79565b865550613420565b601f1984166133ce866132fb565b60005b828110156133f6578489015182556001820191506020850194506020810190506133d1565b86831015613413578489015161340f601f891682612f5b565b8355505b6001600288020188555050505b505050505050565b6000815461343581612db8565b61343f81866127a0565b9450600182166000811461345a5760018114613470576134a3565b60ff1983168652811515602002860193506134a3565b61347985612de9565b60005b8381101561349b5781548189015260018201915060208101905061347c565b808801955050505b50505092915050565b600081546134b981612db8565b6134c38186612616565b945060018216600081146134de57600181146134f457613527565b60ff198316865281151560200286019350613527565b6134fd856132fb565b60005b8381101561351f57815481890152600182019150602081019050613500565b808801955050505b50505092915050565b6000606082019050818103600083015261354a8186613428565b9050818103602083015261355e81856134ac565b9050818103604083015261357281846134ac565b9050949350505050565b7f4e487b7100000000000000000000000000000000000000000000000000000000600052602160045260246000fd5b6135b481612b8e565b82525050565b600061ffff82169050919050565b6135d1816135ba565b82525050565b600063ffffffff82169050919050565b6135f0816135d7565b82525050565b600060a08201905061360b60008301886135ab565b818103602083015261361d8187612651565b905061362c60408301866135c8565b61363960608301856135e7565b6136466080830184612b64565b9695505050505050565b60008151905061365f81612324565b92915050565b60006020828403121561367b5761367a612310565b5b600061368984828501613650565b91505092915050565b7f4f6e6c792063616c6c61626c65206279206f776e657200000000000000000000600082015250565b60006136c86016836127a0565b91506136d382613692565b602082019050919050565b600060208201905081810360008301526136f7816136bb565b9050919050565b7f43616e6e6f74207472616e7366657220746f2073656c66000000000000000000600082015250565b60006137346017836127a0565b915061373f826136fe565b602082019050919050565b6000602082019050818103600083015261376381613727565b9050919050565b6000613775826126ac565b9150613780836126ac565b925082820190508082111561379857613797613150565b5b92915050565b60006137a9826126ac565b91506137b4836126ac565b92508282039050818111156137cc576137cb613150565b5b92915050565b7f4e487b7100000000000000000000000000000000000000000000000000000000600052601260045260246000fd5b600061380c826126ac565b9150613817836126ac565b925082613827576138266137d2565b5b828206905092915050565b600061383d826126ac565b9150613848836126ac565b9250828202613856816126ac565b9150828204841483151761386d5761386c613150565b5b5092915050565b60008160011c9050919050565b6000808291508390505b60018511156138cb578086048111156138a7576138a6613150565b5b60018516156138b65780820291505b80810290506138c485613874565b945061388b565b94509492505050565b6000826138e457600190506139a0565b816138f257600090506139a0565b8160018114613908576002811461391257613941565b60019150506139a0565b60ff84111561392457613923613150565b5b8360020a91508482111561393b5761393a613150565b5b506139a0565b5060208310610133831016604e8410600b84101617156139765782820a90508381111561397157613970613150565b5b6139a0565b6139838484846001613881565b9250905081840481111561399a57613999613150565b5b81810290505b9392505050565b60006139b2826126ac565b91506139bd836126ac565b92506139ea7fffffffffffffffffffffffffffffffffffffffffffffffffffffffffffffffff84846138d4565b90509291505056fea2646970667358221220ebe25e6aa97b1d77506f41055ed429369ec7ae392c2a0ccc3140c2a483e877a664736f6c63430008130033636f6e73742070726f6d7074203d20617267735b305d6966202821736563726574732e6f70656e41694b657929207b7468726f77204572726f7228274e65656420746f20736574204f50454e41495f4b455920656e7669726f6e6d656e74207661726961626c6527297d636f6e7374206f70656e414952657175657374203d2046756e6374696f6e732e6d616b654874747052657175657374287b75726c3a202768747470733a2f2f6170692e6f70656e61692e636f6d2f76312f636861742f636f6d706c6574696f6e73272c6d6574686f643a2027504f5354272c686561646572733a207b27417574686f72697a6174696f6e273a206042656172657220247b736563726574732e6f70656e41694b65797d602c27436f6e74656e742d54797065273a20276170706c69636174696f6e2f6a736f6e277d2c646174613a207b276d6f64656c273a20276770742d346f272c20276d65737361676573273a205b7b27726f6c65273a202775736572272c2027636f6e74656e74273a2070726f6d70747d5d7d7d29636f6e7374205b6f70656e4169526573706f6e73655d203d2061776169742050726f6d6973652e616c6c285b6f70656e4149526571756573745d29636f6e737420726573756c74203d206f70656e4169526573706f6e73652e646174612e63686f696365735b305d2e6d6573736167652e636f6e74656e74726573756c74203d20726573756c742e7265706c616365416c6c28276060606a736f6e272c20272729726573756c74203d20726573756c742e7265706c616365416c6c2827606060272c2027272972657475726e2046756e6374696f6e732e656e636f6465537472696e67284a534f4e2e706172736528726573756c74292e66696e616c526573756c7429",
  "linkReferences": {},
  "deployedLinkReferences": {}
}