{
  "_format": "hh-sol-artifact-1",
  "contractName": "SheLeads",
  "sourceName": "contracts/SheLeads.sol",
  "abi": [
    {
      "inputs": [],
      "stateMutability": "nonpayable",
      "type": "constructor"
    },
    {
      "inputs": [],
      "name": "EmptyArgs",
      "type": "error"
    },
    {
      "inputs": [],
      "name": "EmptySecrets",
      "type": "error"
    },
    {
      "inputs": [],
      "name": "EmptySource",
      "type": "error"
    },
    {
      "inputs": [],
      "name": "NoInlineSecrets",
      "type": "error"
    },
    {
      "inputs": [],
      "name": "OnlyRouterCanFulfill",
      "type": "error"
    },
    {
      "inputs": [
        {
          "internalType": "bytes32",
          "name": "requestId",
          "type": "bytes32"
        }
      ],
      "name": "UnexpectedRequestID",
      "type": "error"
    },
    {
      "anonymous": false,
      "inputs": [
        {
          "indexed": true,
          "internalType": "address",
          "name": "userAddress",
          "type": "address"
        }
      ],
      "name": "AddActionPlan",
      "type": "event"
    },
    {
      "anonymous": false,
      "inputs": [
        {
          "indexed": true,
          "internalType": "address",
          "name": "userAddress",
          "type": "address"
        }
      ],
      "name": "AddProfessionalProfile",
      "type": "event"
    },
    {
      "anonymous": false,
      "inputs": [
        {
          "indexed": true,
          "internalType": "address",
          "name": "userAddress",
          "type": "address"
        }
      ],
      "name": "AddRecommendation",
      "type": "event"
    },
    {
      "anonymous": false,
      "inputs": [
        {
          "indexed": true,
          "internalType": "address",
          "name": "userAddress",
          "type": "address"
        }
      ],
      "name": "AddRecommendationActionPlan",
      "type": "event"
    },
    {
      "anonymous": false,
      "inputs": [
        {
          "indexed": true,
          "internalType": "address",
          "name": "from",
          "type": "address"
        },
        {
          "indexed": true,
          "internalType": "address",
          "name": "to",
          "type": "address"
        }
      ],
      "name": "OwnershipTransferRequested",
      "type": "event"
    },
    {
      "anonymous": false,
      "inputs": [
        {
          "indexed": true,
          "internalType": "address",
          "name": "from",
          "type": "address"
        },
        {
          "indexed": true,
          "internalType": "address",
          "name": "to",
          "type": "address"
        }
      ],
      "name": "OwnershipTransferred",
      "type": "event"
    },
    {
      "anonymous": false,
      "inputs": [
        {
          "indexed": true,
          "internalType": "bytes32",
          "name": "id",
          "type": "bytes32"
        }
      ],
      "name": "RequestFulfilled",
      "type": "event"
    },
    {
      "anonymous": false,
      "inputs": [
        {
          "indexed": true,
          "internalType": "bytes32",
          "name": "id",
          "type": "bytes32"
        }
      ],
      "name": "RequestSent",
      "type": "event"
    },
    {
      "anonymous": false,
      "inputs": [
        {
          "indexed": true,
          "internalType": "bytes32",
          "name": "requestId",
          "type": "bytes32"
        },
        {
          "indexed": false,
          "internalType": "string",
          "name": "result",
          "type": "string"
        },
        {
          "indexed": false,
          "internalType": "bytes",
          "name": "response",
          "type": "bytes"
        },
        {
          "indexed": false,
          "internalType": "bytes",
          "name": "err",
          "type": "bytes"
        }
      ],
      "name": "Response",
      "type": "event"
    },
    {
      "inputs": [],
      "name": "acceptOwnership",
      "outputs": [],
      "stateMutability": "nonpayable",
      "type": "function"
    },
    {
      "inputs": [
        {
          "internalType": "uint256",
          "name": "_recommendationId",
          "type": "uint256"
        },
        {
          "internalType": "string",
          "name": "_content",
          "type": "string"
        }
      ],
      "name": "addActionPlan",
      "outputs": [],
      "stateMutability": "nonpayable",
      "type": "function"
    },
    {
      "inputs": [
        {
          "internalType": "string",
          "name": "_content",
          "type": "string"
        }
      ],
      "name": "addProfessionalProfile",
      "outputs": [],
      "stateMutability": "nonpayable",
      "type": "function"
    },
    {
      "inputs": [
        {
          "internalType": "uint256",
          "name": "_professionalProfileId",
          "type": "uint256"
        },
        {
          "internalType": "string",
          "name": "_content",
          "type": "string"
        }
      ],
      "name": "addRecommendation",
      "outputs": [],
      "stateMutability": "nonpayable",
      "type": "function"
    },
    {
      "inputs": [
        {
          "internalType": "uint256",
          "name": "_professionalProfileId",
          "type": "uint256"
        },
        {
          "internalType": "string",
          "name": "_contentRecommendation",
          "type": "string"
        },
        {
          "internalType": "string",
          "name": "_contentActionPlan",
          "type": "string"
        }
      ],
      "name": "addRecommendationActionPlan",
      "outputs": [],
      "stateMutability": "nonpayable",
      "type": "function"
    },
    {
      "inputs": [
        {
          "internalType": "uint256",
          "name": "_recommendationId",
          "type": "uint256"
        }
      ],
      "name": "getActionPlan",
      "outputs": [
        {
          "internalType": "uint256",
          "name": "",
          "type": "uint256"
        }
      ],
      "stateMutability": "view",
      "type": "function"
    },
    {
      "inputs": [],
      "name": "getMyActionPlan",
      "outputs": [
        {
          "components": [
            {
              "internalType": "uint256",
              "name": "id",
              "type": "uint256"
            },
            {
              "internalType": "string",
              "name": "content",
              "type": "string"
            }
          ],
          "internalType": "struct SheLeads.ActionPlan",
          "name": "",
          "type": "tuple"
        }
      ],
      "stateMutability": "view",
      "type": "function"
    },
    {
      "inputs": [],
      "name": "getProfessionalProfile",
      "outputs": [
        {
          "components": [
            {
              "internalType": "uint256",
              "name": "id",
              "type": "uint256"
            },
            {
              "internalType": "string",
              "name": "content",
              "type": "string"
            }
          ],
          "internalType": "struct SheLeads.ProfessionalProfile",
          "name": "",
          "type": "tuple"
        }
      ],
      "stateMutability": "view",
      "type": "function"
    },
    {
      "inputs": [
        {
          "internalType": "uint256",
          "name": "_professionalProfile",
          "type": "uint256"
        }
      ],
      "name": "getRecommendation",
      "outputs": [
        {
          "components": [
            {
              "internalType": "uint256",
              "name": "id",
              "type": "uint256"
            },
            {
              "internalType": "string",
              "name": "content",
              "type": "string"
            }
          ],
          "internalType": "struct SheLeads.Recommendation",
          "name": "",
          "type": "tuple"
        }
      ],
      "stateMutability": "view",
      "type": "function"
    },
    {
      "inputs": [
        {
          "internalType": "bytes32",
          "name": "requestId",
          "type": "bytes32"
        },
        {
          "internalType": "bytes",
          "name": "response",
          "type": "bytes"
        },
        {
          "internalType": "bytes",
          "name": "err",
          "type": "bytes"
        }
      ],
      "name": "handleOracleFulfillment",
      "outputs": [],
      "stateMutability": "nonpayable",
      "type": "function"
    },
    {
      "inputs": [],
      "name": "owner",
      "outputs": [
        {
          "internalType": "address",
          "name": "",
          "type": "address"
        }
      ],
      "stateMutability": "view",
      "type": "function"
    },
    {
      "inputs": [],
      "name": "result",
      "outputs": [
        {
          "internalType": "string",
          "name": "",
          "type": "string"
        }
      ],
      "stateMutability": "view",
      "type": "function"
    },
    {
      "inputs": [],
      "name": "s_lastError",
      "outputs": [
        {
          "internalType": "bytes",
          "name": "",
          "type": "bytes"
        }
      ],
      "stateMutability": "view",
      "type": "function"
    },
    {
      "inputs": [],
      "name": "s_lastRequestId",
      "outputs": [
        {
          "internalType": "bytes32",
          "name": "",
          "type": "bytes32"
        }
      ],
      "stateMutability": "view",
      "type": "function"
    },
    {
      "inputs": [],
      "name": "s_lastResponse",
      "outputs": [
        {
          "internalType": "bytes",
          "name": "",
          "type": "bytes"
        }
      ],
      "stateMutability": "view",
      "type": "function"
    },
    {
      "inputs": [
        {
          "internalType": "uint64",
          "name": "subscriptionId",
          "type": "uint64"
        },
        {
          "internalType": "bytes",
          "name": "encryptedSecrets",
          "type": "bytes"
        },
        {
          "internalType": "string[]",
          "name": "args",
          "type": "string[]"
        }
      ],
      "name": "sendRequest",
      "outputs": [
        {
          "internalType": "bytes32",
          "name": "requestId",
          "type": "bytes32"
        }
      ],
      "stateMutability": "nonpayable",
      "type": "function"
    },
    {
      "inputs": [
        {
          "internalType": "address",
          "name": "to",
          "type": "address"
        }
      ],
      "name": "transferOwnership",
      "outputs": [],
      "stateMutability": "nonpayable",
      "type": "function"
    }
  ],
  "bytecode": "0x60a060405273f9b8fc078197181c841c296c876945aaa425b278600e60006101000a81548173ffffffffffffffffffffffffffffffffffffffff021916908373ffffffffffffffffffffffffffffffffffffffff160217905550604051806102c0016040528061028a815260200162003c2761028a9139600f9081620000869190620005e7565b50620493e0601060006101000a81548163ffffffff021916908363ffffffff1602179055507f66756e2d626173652d7365706f6c69612d31000000000000000000000000000060001b601155348015620000df57600080fd5b5033806000600e60009054906101000a900473ffffffffffffffffffffffffffffffffffffffff168073ffffffffffffffffffffffffffffffffffffffff1660808173ffffffffffffffffffffffffffffffffffffffff168152505050600073ffffffffffffffffffffffffffffffffffffffff168273ffffffffffffffffffffffffffffffffffffffff1603620001ae576040517f08c379a0000000000000000000000000000000000000000000000000000000008152600401620001a5906200072f565b60405180910390fd5b816000806101000a81548173ffffffffffffffffffffffffffffffffffffffff021916908373ffffffffffffffffffffffffffffffffffffffff160217905550600073ffffffffffffffffffffffffffffffffffffffff168173ffffffffffffffffffffffffffffffffffffffff1614620002355762000234816200023e60201b60201c565b5b505050620007c3565b3373ffffffffffffffffffffffffffffffffffffffff168173ffffffffffffffffffffffffffffffffffffffff1603620002af576040517f08c379a0000000000000000000000000000000000000000000000000000000008152600401620002a690620007a1565b60405180910390fd5b80600160006101000a81548173ffffffffffffffffffffffffffffffffffffffff021916908373ffffffffffffffffffffffffffffffffffffffff1602179055508073ffffffffffffffffffffffffffffffffffffffff1660008054906101000a900473ffffffffffffffffffffffffffffffffffffffff1673ffffffffffffffffffffffffffffffffffffffff167fed8889f560326eb138920d842192f0eb3dd22b4f139c87a2c57538e05bae127860405160405180910390a350565b600081519050919050565b7f4e487b7100000000000000000000000000000000000000000000000000000000600052604160045260246000fd5b7f4e487b7100000000000000000000000000000000000000000000000000000000600052602260045260246000fd5b60006002820490506001821680620003ef57607f821691505b602082108103620004055762000404620003a7565b5b50919050565b60008190508160005260206000209050919050565b60006020601f8301049050919050565b600082821b905092915050565b6000600883026200046f7fffffffffffffffffffffffffffffffffffffffffffffffffffffffffffffffff8262000430565b6200047b868362000430565b95508019841693508086168417925050509392505050565b6000819050919050565b6000819050919050565b6000620004c8620004c2620004bc8462000493565b6200049d565b62000493565b9050919050565b6000819050919050565b620004e483620004a7565b620004fc620004f382620004cf565b8484546200043d565b825550505050565b600090565b6200051362000504565b62000520818484620004d9565b505050565b5b8181101562000548576200053c60008262000509565b60018101905062000526565b5050565b601f821115620005975762000561816200040b565b6200056c8462000420565b810160208510156200057c578190505b620005946200058b8562000420565b83018262000525565b50505b505050565b600082821c905092915050565b6000620005bc600019846008026200059c565b1980831691505092915050565b6000620005d78383620005a9565b9150826002028217905092915050565b620005f2826200036d565b67ffffffffffffffff8111156200060e576200060d62000378565b5b6200061a8254620003d6565b620006278282856200054c565b600060209050601f8311600181146200065f57600084156200064a578287015190505b620006568582620005c9565b865550620006c6565b601f1984166200066f866200040b565b60005b82811015620006995784890151825560018201915060208501945060208101905062000672565b86831015620006b95784890151620006b5601f891682620005a9565b8355505b6001600288020188555050505b505050505050565b600082825260208201905092915050565b7f43616e6e6f7420736574206f776e657220746f207a65726f0000000000000000600082015250565b600062000717601883620006ce565b91506200072482620006df565b602082019050919050565b600060208201905081810360008301526200074a8162000708565b9050919050565b7f43616e6e6f74207472616e7366657220746f2073656c66000000000000000000600082015250565b600062000789601783620006ce565b9150620007968262000751565b602082019050919050565b60006020820190508181036000830152620007bc816200077a565b9050919050565b608051613441620007e660003960008181610326015261158d01526134416000f3fe608060405234801561001057600080fd5b506004361061010b5760003560e01c8063876a72d7116100a2578063b1e2174911610071578063b1e2174914610280578063b40aab511461029e578063dd23f8ed146102ce578063f0a32d7e146102ea578063f2fde38b146103085761010b565b8063876a72d7146101f85780638da5cb5b146102165780639168e82c14610234578063a1536afe146102505761010b565b80634b0795a8116100de5780634b0795a8146101965780635154da5a146101b457806365372147146101d057806379ba5097146101ee5761010b565b80630ca76175146101105780632f7474a11461012c5780633944ea3a146101485780633e8c352714610166575b600080fd5b61012a600480360381019061012591906120d6565b610324565b005b61014660048036038101906101419190612202565b6103e6565b005b61015061053a565b60405161015d91906122ca565b60405180910390f35b610180600480360381019061017b9190612322565b6105c8565b60405161018d919061235e565b60405180910390f35b61019e6105e5565b6040516101ab91906122ca565b60405180910390f35b6101ce60048036038101906101c99190612379565b610673565b005b6101d861071e565b6040516101e5919061242a565b60405180910390f35b6101f66107ac565b005b610200610941565b60405161020d91906124e2565b60405180910390f35b61021e610a4d565b60405161022b9190612545565b60405180910390f35b61024e60048036038101906102499190612560565b610a76565b005b61026a60048036038101906102659190612322565b610bca565b6040516102779190612628565b60405180910390f35b610288610c93565b6040516102959190612659565b60405180910390f35b6102b860048036038101906102b39190612714565b610c99565b6040516102c59190612659565b60405180910390f35b6102e860048036038101906102e39190612379565b610dc6565b005b6102f2610eb5565b6040516102ff91906127e1565b60405180910390f35b610322600480360381019061031d919061282f565b610fa8565b005b7f000000000000000000000000000000000000000000000000000000000000000073ffffffffffffffffffffffffffffffffffffffff163373ffffffffffffffffffffffffffffffffffffffff16146103a9576040517fc6829f8300000000000000000000000000000000000000000000000000000000815260040160405180910390fd5b6103b4838383610fbc565b827f85e1543bf2f84fe80c6badbce3648c8539ad1df4d2b3d822938ca0538be727e660405160405180910390a2505050565b60006103f26002611076565b905080600860003373ffffffffffffffffffffffffffffffffffffffff1673ffffffffffffffffffffffffffffffffffffffff16815260200190815260200160002081905550600960003373ffffffffffffffffffffffffffffffffffffffff1673ffffffffffffffffffffffffffffffffffffffff168152602001908152602001600020819080600181540180825580915050600190039060005260206000200160009091909190915055604051806040016040528082815260200183815250600a60008381526020019081526020016000206000820151816000015560208201518160010190816104e59190612a68565b509050506104f36002611084565b3373ffffffffffffffffffffffffffffffffffffffff167fc7082cdecc2539ec9a36307102780434b5e042a0ef8edb52cbe8a12a291a8d0260405160405180910390a25050565b600680546105479061288b565b80601f01602080910402602001604051908101604052809291908181526020018280546105739061288b565b80156105c05780601f10610595576101008083540402835291602001916105c0565b820191906000526020600020905b8154815290600101906020018083116105a357829003601f168201915b505050505081565b6000600c6000838152602001908152602001600020549050919050565b600780546105f29061288b565b80601f016020809104026020016040519081016040528092919081815260200182805461061e9061288b565b801561066b5780601f106106405761010080835404028352916020019161066b565b820191906000526020600020905b81548152906001019060200180831161064e57829003601f168201915b505050505081565b600061067f6003611076565b9050604051806040016040528082815260200183815250600b60008581526020019081526020016000206000820151816000015560208201518160010190816106c89190612a68565b509050506106d66003611084565b3373ffffffffffffffffffffffffffffffffffffffff167fadb097085cd54defd6de7b9090ce17112766c55f14ddb3121c252f9813aeb21360405160405180910390a2505050565b6012805461072b9061288b565b80601f01602080910402602001604051908101604052809291908181526020018280546107579061288b565b80156107a45780601f10610779576101008083540402835291602001916107a4565b820191906000526020600020905b81548152906001019060200180831161078757829003601f168201915b505050505081565b600160009054906101000a900473ffffffffffffffffffffffffffffffffffffffff1673ffffffffffffffffffffffffffffffffffffffff163373ffffffffffffffffffffffffffffffffffffffff161461083c576040517f08c379a000000000000000000000000000000000000000000000000000000000815260040161083390612b86565b60405180910390fd5b60008060009054906101000a900473ffffffffffffffffffffffffffffffffffffffff169050336000806101000a81548173ffffffffffffffffffffffffffffffffffffffff021916908373ffffffffffffffffffffffffffffffffffffffff1602179055506000600160006101000a81548173ffffffffffffffffffffffffffffffffffffffff021916908373ffffffffffffffffffffffffffffffffffffffff1602179055503373ffffffffffffffffffffffffffffffffffffffff168173ffffffffffffffffffffffffffffffffffffffff167f8be0079c531659141344cd1fd0a4f28419497f9722a3daafe3b4186f6b6457e060405160405180910390a350565b610949611e4c565b6000600860003373ffffffffffffffffffffffffffffffffffffffff1673ffffffffffffffffffffffffffffffffffffffff168152602001908152602001600020549050600a6000828152602001908152602001600020604051806040016040529081600082015481526020016001820180546109c59061288b565b80601f01602080910402602001604051908101604052809291908181526020018280546109f19061288b565b8015610a3e5780601f10610a1357610100808354040283529160200191610a3e565b820191906000526020600020905b815481529060010190602001808311610a2157829003601f168201915b50505050508152505091505090565b60008060009054906101000a900473ffffffffffffffffffffffffffffffffffffffff16905090565b6000610a826003611076565b9050604051806040016040528082815260200184815250600b6000868152602001908152602001600020600082015181600001556020820151816001019081610acb9190612a68565b509050506000610adb6004611076565b905080600c600084815260200190815260200160002081905550604051806040016040528082815260200184815250600d60003373ffffffffffffffffffffffffffffffffffffffff1673ffffffffffffffffffffffffffffffffffffffff168152602001908152602001600020600082015181600001556020820151816001019081610b689190612a68565b50905050610b766004611084565b610b806003611084565b3373ffffffffffffffffffffffffffffffffffffffff167f61a9cb4f436c185d72b15d73d5219acaeaea0a2ffa2fbe94adbba8f0f0bd3fde60405160405180910390a25050505050565b610bd2611e66565b600b600083815260200190815260200160002060405180604001604052908160008201548152602001600182018054610c0a9061288b565b80601f0160208091040260200160405190810160405280929190818152602001828054610c369061288b565b8015610c835780601f10610c5857610100808354040283529160200191610c83565b820191906000526020600020905b815481529060010190602001808311610c6657829003601f168201915b5050505050815250509050919050565b60055481565b6000610ca3611e80565b610d40600f8054610cb39061288b565b80601f0160208091040260200160405190810160405280929190818152602001828054610cdf9061288b565b8015610d2c5780601f10610d0157610100808354040283529160200191610d2c565b820191906000526020600020905b815481529060010190602001808311610d0f57829003601f168201915b50505050508261109a90919063ffffffff16565b6000848490501115610d6c57610d6b848490610d5c9190612c59565b826110ab90919063ffffffff16565b5b600085511115610d8a57610d8985826110f390919063ffffffff16565b5b610db2610d968261116c565b87601060009054906101000a900463ffffffff16601154611588565b600581905550600554915050949350505050565b6000610dd26004611076565b905080600c600085815260200190815260200160002081905550604051806040016040528082815260200183815250600d60003373ffffffffffffffffffffffffffffffffffffffff1673ffffffffffffffffffffffffffffffffffffffff168152602001908152602001600020600082015181600001556020820151816001019081610e5f9190612a68565b50905050610e6d6004611084565b3373ffffffffffffffffffffffffffffffffffffffff167f2e666739184a056dc66b03a9cecfbadafdf4f1b649dec56336289578b834771b60405160405180910390a2505050565b610ebd611ef2565b600d60003373ffffffffffffffffffffffffffffffffffffffff1673ffffffffffffffffffffffffffffffffffffffff16815260200190815260200160002060405180604001604052908160008201548152602001600182018054610f219061288b565b80601f0160208091040260200160405190810160405280929190818152602001828054610f4d9061288b565b8015610f9a5780601f10610f6f57610100808354040283529160200191610f9a565b820191906000526020600020905b815481529060010190602001808311610f7d57829003601f168201915b505050505081525050905090565b610fb061166b565b610fb9816116fb565b50565b826005541461100257826040517fd068bf5b000000000000000000000000000000000000000000000000000000008152600401610ff99190612659565b60405180910390fd5b81600690816110119190612cc9565b5081601290816110219190612a68565b5080600790816110319190612cc9565b50827f160ed0aaffbef6885155188b91459cb5a97d5daadccf7561d8c46deea6641b5060126006600760405161106993929190612ea3565b60405180910390a2505050565b600081600001549050919050565b6001816000016000828254019250508190555050565b6110a78260008084611827565b5050565b60008151036110e6576040517ffe936cb700000000000000000000000000000000000000000000000000000000815260040160405180910390fd5b808260a001819052505050565b600081510361112e576040517fe889636f00000000000000000000000000000000000000000000000000000000815260040160405180910390fd5b60018260200190600281111561114757611146612eef565b5b9081600281111561115b5761115a612eef565b5b815250508082608001819052505050565b6060600061117b6101006118d1565b90506111c56040518060400160405280600c81526020017f636f64654c6f636174696f6e0000000000000000000000000000000000000000815250826118f890919063ffffffff16565b6111ee836000015160028111156111df576111de612eef565b5b8261192190919063ffffffff16565b6112366040518060400160405280600881526020017f6c616e6775616765000000000000000000000000000000000000000000000000815250826118f890919063ffffffff16565b61125f836040015160008111156112505761124f612eef565b5b8261192190919063ffffffff16565b6112a76040518060400160405280600681526020017f736f757263650000000000000000000000000000000000000000000000000000815250826118f890919063ffffffff16565b6112be8360600151826118f890919063ffffffff16565b60008360a0015151111561137a576113146040518060400160405280600481526020017f6172677300000000000000000000000000000000000000000000000000000000815250826118f890919063ffffffff16565b61131d81611971565b60005b8360a001515181101561136f5761135e8460a00151828151811061134757611346612f1e565b5b6020026020010151836118f890919063ffffffff16565b8061136890612f7c565b9050611320565b5061137981611999565b5b600083608001515111156114bb576000600281111561139c5761139b612eef565b5b836020015160028111156113b3576113b2612eef565b5b036113ea576040517fa80d31f700000000000000000000000000000000000000000000000000000000815260040160405180910390fd5b6114326040518060400160405280600f81526020017f736563726574734c6f636174696f6e0000000000000000000000000000000000815250826118f890919063ffffffff16565b61145b8360200151600281111561144c5761144b612eef565b5b8261192190919063ffffffff16565b6114a36040518060400160405280600781526020017f7365637265747300000000000000000000000000000000000000000000000000815250826118f890919063ffffffff16565b6114ba8360800151826119c190919063ffffffff16565b5b60008360c00151511115611577576115116040518060400160405280600981526020017f6279746573417267730000000000000000000000000000000000000000000000815250826118f890919063ffffffff16565b61151a81611971565b60005b8360c001515181101561156c5761155b8460c00151828151811061154457611543612f1e565b5b6020026020010151836119c190919063ffffffff16565b8061156590612f7c565b905061151d565b5061157681611999565b5b806000015160000151915050919050565b6000807f000000000000000000000000000000000000000000000000000000000000000073ffffffffffffffffffffffffffffffffffffffff1663461d27628688600188886040518663ffffffff1660e01b81526004016115ed95949392919061300f565b6020604051808303816000875af115801561160c573d6000803e3d6000fd5b505050506040513d601f19601f82011682018060405250810190611630919061307e565b9050807f1131472297a800fee664d1d89cfa8f7676ff07189ecc53f80bbb5f4969099db860405160405180910390a280915050949350505050565b60008054906101000a900473ffffffffffffffffffffffffffffffffffffffff1673ffffffffffffffffffffffffffffffffffffffff163373ffffffffffffffffffffffffffffffffffffffff16146116f9576040517f08c379a00000000000000000000000000000000000000000000000000000000081526004016116f0906130f7565b60405180910390fd5b565b3373ffffffffffffffffffffffffffffffffffffffff168173ffffffffffffffffffffffffffffffffffffffff1603611769576040517f08c379a000000000000000000000000000000000000000000000000000000000815260040161176090613163565b60405180910390fd5b80600160006101000a81548173ffffffffffffffffffffffffffffffffffffffff021916908373ffffffffffffffffffffffffffffffffffffffff1602179055508073ffffffffffffffffffffffffffffffffffffffff1660008054906101000a900473ffffffffffffffffffffffffffffffffffffffff1673ffffffffffffffffffffffffffffffffffffffff167fed8889f560326eb138920d842192f0eb3dd22b4f139c87a2c57538e05bae127860405160405180910390a350565b6000815103611862576040517f22ce3edd00000000000000000000000000000000000000000000000000000000815260040160405180910390fd5b828460000190600281111561187a57611879612eef565b5b9081600281111561188e5761188d612eef565b5b8152505081846040019060008111156118aa576118a9612eef565b5b908160008111156118be576118bd612eef565b5b8152505080846060018190525050505050565b6118d9611f0c565b6118e78160000151836119ea565b506000816020018181525050919050565b6119058260038351611a63565b61191c818360000151611c0c90919063ffffffff16565b505050565b61194360026005600660ff16901b178360000151611c2890919063ffffffff16565b5061196d8282604051602001611959919061235e565b6040516020818303038152906040526119c1565b5050565b61197c816004611c92565b60018160200181815161198f9190613183565b9150818152505050565b6119a4816007611c92565b6001816020018181516119b791906131b7565b9150818152505050565b6119ce8260028351611a63565b6119e5818360000151611c0c90919063ffffffff16565b505050565b6119f2611f2c565b6000602083611a01919061321a565b14611a2d57602082611a13919061321a565b6020611a1f91906131b7565b82611a2a9190613183565b91505b818360200181815250506040518084526000815282810160200181811015611a5457600080fd5b80604052505082905092915050565b60178167ffffffffffffffff1611611a9e57611a988160058460ff16901b60ff16178460000151611c2890919063ffffffff16565b50611c07565b60ff8167ffffffffffffffff1611611afc57611ad1601860058460ff16901b178460000151611c2890919063ffffffff16565b50611af68167ffffffffffffffff1660018560000151611cb89092919063ffffffff16565b50611c06565b61ffff8167ffffffffffffffff1611611b5b57611b30601960058460ff16901b178460000151611c2890919063ffffffff16565b50611b558167ffffffffffffffff1660028560000151611cb89092919063ffffffff16565b50611c05565b63ffffffff8167ffffffffffffffff1611611bbc57611b91601a60058460ff16901b178460000151611c2890919063ffffffff16565b50611bb68167ffffffffffffffff1660048560000151611cb89092919063ffffffff16565b50611c04565b611bdd601b60058460ff16901b178460000151611c2890919063ffffffff16565b50611c028167ffffffffffffffff1660088560000151611cb89092919063ffffffff16565b505b5b5b5b505050565b611c14611f2c565b611c2083838451611d45565b905092915050565b611c30611f2c565b600083600001515190506000600182611c499190613183565b905084602001518210611c6d57611c6c85600283611c67919061324b565b611e28565b5b84516020838201018581538151831115611c85578282525b5050849250505092915050565b611cb3601f60058360ff16901b178360000151611c2890919063ffffffff16565b505050565b611cc0611f2c565b6000846000015151905060008184611cd89190613183565b90508560200151811115611cfd57611cfc86600283611cf7919061324b565b611e28565b5b6000600185610100611d0f91906133c0565b611d1991906131b7565b905086518281018783198251161781528151841115611d36578382525b50508693505050509392505050565b611d4d611f2c565b8251821115611d5b57600080fd5b6000846000015151905060008382611d739190613183565b90508560200151811115611d9857611d9786600283611d92919061324b565b611e28565b5b60008087518051856020830101935080851115611db3578482525b60208901925050505b60208610611dfa5780518252602082611dd59190613183565b9150602081611de49190613183565b9050602086611df391906131b7565b9550611dbc565b60006001876020036101000a0390508019825116818451168181178552505050879450505050509392505050565b600082600001519050611e3b83836119ea565b50611e468382611c0c565b50505050565b604051806040016040528060008152602001606081525090565b604051806040016040528060008152602001606081525090565b6040518060e0016040528060006002811115611e9f57611e9e612eef565b5b815260200160006002811115611eb857611eb7612eef565b5b8152602001600080811115611ed057611ecf612eef565b5b8152602001606081526020016060815260200160608152602001606081525090565b604051806040016040528060008152602001606081525090565b6040518060400160405280611f1f611f2c565b8152602001600081525090565b604051806040016040528060608152602001600081525090565b6000604051905090565b600080fd5b600080fd5b6000819050919050565b611f6d81611f5a565b8114611f7857600080fd5b50565b600081359050611f8a81611f64565b92915050565b600080fd5b600080fd5b6000601f19601f8301169050919050565b7f4e487b7100000000000000000000000000000000000000000000000000000000600052604160045260246000fd5b611fe382611f9a565b810181811067ffffffffffffffff8211171561200257612001611fab565b5b80604052505050565b6000612015611f46565b90506120218282611fda565b919050565b600067ffffffffffffffff82111561204157612040611fab565b5b61204a82611f9a565b9050602081019050919050565b82818337600083830152505050565b600061207961207484612026565b61200b565b90508281526020810184848401111561209557612094611f95565b5b6120a0848285612057565b509392505050565b600082601f8301126120bd576120bc611f90565b5b81356120cd848260208601612066565b91505092915050565b6000806000606084860312156120ef576120ee611f50565b5b60006120fd86828701611f7b565b935050602084013567ffffffffffffffff81111561211e5761211d611f55565b5b61212a868287016120a8565b925050604084013567ffffffffffffffff81111561214b5761214a611f55565b5b612157868287016120a8565b9150509250925092565b600067ffffffffffffffff82111561217c5761217b611fab565b5b61218582611f9a565b9050602081019050919050565b60006121a56121a084612161565b61200b565b9050828152602081018484840111156121c1576121c0611f95565b5b6121cc848285612057565b509392505050565b600082601f8301126121e9576121e8611f90565b5b81356121f9848260208601612192565b91505092915050565b60006020828403121561221857612217611f50565b5b600082013567ffffffffffffffff81111561223657612235611f55565b5b612242848285016121d4565b91505092915050565b600081519050919050565b600082825260208201905092915050565b60005b8381101561228557808201518184015260208101905061226a565b60008484015250505050565b600061229c8261224b565b6122a68185612256565b93506122b6818560208601612267565b6122bf81611f9a565b840191505092915050565b600060208201905081810360008301526122e48184612291565b905092915050565b6000819050919050565b6122ff816122ec565b811461230a57600080fd5b50565b60008135905061231c816122f6565b92915050565b60006020828403121561233857612337611f50565b5b60006123468482850161230d565b91505092915050565b612358816122ec565b82525050565b6000602082019050612373600083018461234f565b92915050565b600080604083850312156123905761238f611f50565b5b600061239e8582860161230d565b925050602083013567ffffffffffffffff8111156123bf576123be611f55565b5b6123cb858286016121d4565b9150509250929050565b600081519050919050565b600082825260208201905092915050565b60006123fc826123d5565b61240681856123e0565b9350612416818560208601612267565b61241f81611f9a565b840191505092915050565b6000602082019050818103600083015261244481846123f1565b905092915050565b612455816122ec565b82525050565b600082825260208201905092915050565b6000612477826123d5565b612481818561245b565b9350612491818560208601612267565b61249a81611f9a565b840191505092915050565b60006040830160008301516124bd600086018261244c565b50602083015184820360208601526124d5828261246c565b9150508091505092915050565b600060208201905081810360008301526124fc81846124a5565b905092915050565b600073ffffffffffffffffffffffffffffffffffffffff82169050919050565b600061252f82612504565b9050919050565b61253f81612524565b82525050565b600060208201905061255a6000830184612536565b92915050565b60008060006060848603121561257957612578611f50565b5b60006125878682870161230d565b935050602084013567ffffffffffffffff8111156125a8576125a7611f55565b5b6125b4868287016121d4565b925050604084013567ffffffffffffffff8111156125d5576125d4611f55565b5b6125e1868287016121d4565b9150509250925092565b6000604083016000830151612603600086018261244c565b506020830151848203602086015261261b828261246c565b9150508091505092915050565b6000602082019050818103600083015261264281846125eb565b905092915050565b61265381611f5a565b82525050565b600060208201905061266e600083018461264a565b92915050565b600067ffffffffffffffff82169050919050565b61269181612674565b811461269c57600080fd5b50565b6000813590506126ae81612688565b92915050565b600080fd5b600080fd5b60008083601f8401126126d4576126d3611f90565b5b8235905067ffffffffffffffff8111156126f1576126f06126b4565b5b60208301915083602082028301111561270d5761270c6126b9565b5b9250929050565b6000806000806060858703121561272e5761272d611f50565b5b600061273c8782880161269f565b945050602085013567ffffffffffffffff81111561275d5761275c611f55565b5b612769878288016120a8565b935050604085013567ffffffffffffffff81111561278a57612789611f55565b5b612796878288016126be565b925092505092959194509250565b60006040830160008301516127bc600086018261244c565b50602083015184820360208601526127d4828261246c565b9150508091505092915050565b600060208201905081810360008301526127fb81846127a4565b905092915050565b61280c81612524565b811461281757600080fd5b50565b60008135905061282981612803565b92915050565b60006020828403121561284557612844611f50565b5b60006128538482850161281a565b91505092915050565b7f4e487b7100000000000000000000000000000000000000000000000000000000600052602260045260246000fd5b600060028204905060018216806128a357607f821691505b6020821081036128b6576128b561285c565b5b50919050565b60008190508160005260206000209050919050565b60006020601f8301049050919050565b600082821b905092915050565b60006008830261291e7fffffffffffffffffffffffffffffffffffffffffffffffffffffffffffffffff826128e1565b61292886836128e1565b95508019841693508086168417925050509392505050565b6000819050919050565b600061296561296061295b846122ec565b612940565b6122ec565b9050919050565b6000819050919050565b61297f8361294a565b61299361298b8261296c565b8484546128ee565b825550505050565b600090565b6129a861299b565b6129b3818484612976565b505050565b5b818110156129d7576129cc6000826129a0565b6001810190506129b9565b5050565b601f821115612a1c576129ed816128bc565b6129f6846128d1565b81016020851015612a05578190505b612a19612a11856128d1565b8301826129b8565b50505b505050565b600082821c905092915050565b6000612a3f60001984600802612a21565b1980831691505092915050565b6000612a588383612a2e565b9150826002028217905092915050565b612a71826123d5565b67ffffffffffffffff811115612a8a57612a89611fab565b5b612a94825461288b565b612a9f8282856129db565b600060209050601f831160018114612ad25760008415612ac0578287015190505b612aca8582612a4c565b865550612b32565b601f198416612ae0866128bc565b60005b82811015612b0857848901518255600182019150602085019450602081019050612ae3565b86831015612b255784890151612b21601f891682612a2e565b8355505b6001600288020188555050505b505050505050565b7f4d7573742062652070726f706f736564206f776e657200000000000000000000600082015250565b6000612b706016836123e0565b9150612b7b82612b3a565b602082019050919050565b60006020820190508181036000830152612b9f81612b63565b9050919050565b600067ffffffffffffffff821115612bc157612bc0611fab565b5b602082029050602081019050919050565b6000612be5612be084612ba6565b61200b565b90508083825260208201905060208402830185811115612c0857612c076126b9565b5b835b81811015612c4f57803567ffffffffffffffff811115612c2d57612c2c611f90565b5b808601612c3a89826121d4565b85526020850194505050602081019050612c0a565b5050509392505050565b6000612c66368484612bd2565b905092915050565b60008190508160005260206000209050919050565b601f821115612cc457612c9581612c6e565b612c9e846128d1565b81016020851015612cad578190505b612cc1612cb9856128d1565b8301826129b8565b50505b505050565b612cd28261224b565b67ffffffffffffffff811115612ceb57612cea611fab565b5b612cf5825461288b565b612d00828285612c83565b600060209050601f831160018114612d335760008415612d21578287015190505b612d2b8582612a4c565b865550612d93565b601f198416612d4186612c6e565b60005b82811015612d6957848901518255600182019150602085019450602081019050612d44565b86831015612d865784890151612d82601f891682612a2e565b8355505b6001600288020188555050505b505050505050565b60008154612da88161288b565b612db281866123e0565b94506001821660008114612dcd5760018114612de357612e16565b60ff198316865281151560200286019350612e16565b612dec856128bc565b60005b83811015612e0e57815481890152600182019150602081019050612def565b808801955050505b50505092915050565b60008154612e2c8161288b565b612e368186612256565b94506001821660008114612e515760018114612e6757612e9a565b60ff198316865281151560200286019350612e9a565b612e7085612c6e565b60005b83811015612e9257815481890152600182019150602081019050612e73565b808801955050505b50505092915050565b60006060820190508181036000830152612ebd8186612d9b565b90508181036020830152612ed18185612e1f565b90508181036040830152612ee58184612e1f565b9050949350505050565b7f4e487b7100000000000000000000000000000000000000000000000000000000600052602160045260246000fd5b7f4e487b7100000000000000000000000000000000000000000000000000000000600052603260045260246000fd5b7f4e487b7100000000000000000000000000000000000000000000000000000000600052601160045260246000fd5b6000612f87826122ec565b91507fffffffffffffffffffffffffffffffffffffffffffffffffffffffffffffffff8203612fb957612fb8612f4d565b5b600182019050919050565b612fcd81612674565b82525050565b600061ffff82169050919050565b612fea81612fd3565b82525050565b600063ffffffff82169050919050565b61300981612ff0565b82525050565b600060a0820190506130246000830188612fc4565b81810360208301526130368187612291565b90506130456040830186612fe1565b6130526060830185613000565b61305f608083018461264a565b9695505050505050565b60008151905061307881611f64565b92915050565b60006020828403121561309457613093611f50565b5b60006130a284828501613069565b91505092915050565b7f4f6e6c792063616c6c61626c65206279206f776e657200000000000000000000600082015250565b60006130e16016836123e0565b91506130ec826130ab565b602082019050919050565b60006020820190508181036000830152613110816130d4565b9050919050565b7f43616e6e6f74207472616e7366657220746f2073656c66000000000000000000600082015250565b600061314d6017836123e0565b915061315882613117565b602082019050919050565b6000602082019050818103600083015261317c81613140565b9050919050565b600061318e826122ec565b9150613199836122ec565b92508282019050808211156131b1576131b0612f4d565b5b92915050565b60006131c2826122ec565b91506131cd836122ec565b92508282039050818111156131e5576131e4612f4d565b5b92915050565b7f4e487b7100000000000000000000000000000000000000000000000000000000600052601260045260246000fd5b6000613225826122ec565b9150613230836122ec565b9250826132405761323f6131eb565b5b828206905092915050565b6000613256826122ec565b9150613261836122ec565b925082820261326f816122ec565b9150828204841483151761328657613285612f4d565b5b5092915050565b60008160011c9050919050565b6000808291508390505b60018511156132e4578086048111156132c0576132bf612f4d565b5b60018516156132cf5780820291505b80810290506132dd8561328d565b94506132a4565b94509492505050565b6000826132fd57600190506133b9565b8161330b57600090506133b9565b8160018114613321576002811461332b5761335a565b60019150506133b9565b60ff84111561333d5761333c612f4d565b5b8360020a91508482111561335457613353612f4d565b5b506133b9565b5060208310610133831016604e8410600b841016171561338f5782820a90508381111561338a57613389612f4d565b5b6133b9565b61339c848484600161329a565b925090508184048111156133b3576133b2612f4d565b5b81810290505b9392505050565b60006133cb826122ec565b91506133d6836122ec565b92506134037fffffffffffffffffffffffffffffffffffffffffffffffffffffffffffffffff84846132ed565b90509291505056fea2646970667358221220ae7b372b7c03e342572853e43b0f8dd25b4cfda18223d878a2d8a85e7ac8443364736f6c63430008130033636f6e73742070726f6d7074203d20617267735b305d6966202821736563726574732e6f70656e41694b657929207b7468726f77204572726f7228274e65656420746f20736574204f50454e41495f4b455920656e7669726f6e6d656e74207661726961626c6527297d636f6e7374206f70656e414952657175657374203d2046756e6374696f6e732e6d616b654874747052657175657374287b75726c3a202768747470733a2f2f6170692e6f70656e61692e636f6d2f76312f636861742f636f6d706c6574696f6e73272c6d6574686f643a2027504f5354272c686561646572733a207b27417574686f72697a6174696f6e273a206042656172657220247b736563726574732e6f70656e41694b65797d602c27436f6e74656e742d54797065273a20276170706c69636174696f6e2f6a736f6e277d2c646174613a207b276d6f64656c273a20276770742d346f272c20276d65737361676573273a205b7b27726f6c65273a202775736572272c2027636f6e74656e74273a2070726f6d70747d5d7d7d29636f6e7374205b6f70656e4169526573706f6e73655d203d2061776169742050726f6d6973652e616c6c285b6f70656e4149526571756573745d29636f6e737420726573756c74203d206f70656e4169526573706f6e73652e646174612e63686f696365735b305d2e6d6573736167652e636f6e74656e74726573756c74203d20726573756c742e7265706c616365416c6c28276060606a736f6e272c20272729726573756c74203d20726573756c742e7265706c616365416c6c2827606060272c2027272972657475726e2046756e6374696f6e732e656e636f6465537472696e67284a534f4e2e706172736528726573756c74292e66696e616c526573756c7429",
  "linkReferences": {},
  "deployedLinkReferences": {}
}