{
  "_format": "hh-sol-artifact-1",
  "contractName": "SheLeads",
  "sourceName": "contracts/SheLeads.sol",
  "abi": [
    {
      "inputs": [],
      "stateMutability": "nonpayable",
      "type": "constructor"
    },
    {
      "anonymous": false,
      "inputs": [
        {
          "indexed": true,
          "internalType": "address",
          "name": "userAddress",
          "type": "address"
        }
      ],
      "name": "AddActionPlan",
      "type": "event"
    },
    {
      "anonymous": false,
      "inputs": [
        {
          "indexed": true,
          "internalType": "address",
          "name": "userAddress",
          "type": "address"
        }
      ],
      "name": "AddProfessionalProfile",
      "type": "event"
    },
    {
      "anonymous": false,
      "inputs": [
        {
          "indexed": true,
          "internalType": "address",
          "name": "userAddress",
          "type": "address"
        }
      ],
      "name": "AddRecommendation",
      "type": "event"
    },
    {
      "inputs": [
        {
          "internalType": "uint256",
          "name": "_recommendationId",
          "type": "uint256"
        },
        {
          "internalType": "string",
          "name": "_content",
          "type": "string"
        }
      ],
      "name": "addActionPlan",
      "outputs": [],
      "stateMutability": "nonpayable",
      "type": "function"
    },
    {
      "inputs": [
        {
          "internalType": "string",
          "name": "_content",
          "type": "string"
        }
      ],
      "name": "addProfessionalProfile",
      "outputs": [],
      "stateMutability": "nonpayable",
      "type": "function"
    },
    {
      "inputs": [
        {
          "internalType": "uint256",
          "name": "_professionalProfileId",
          "type": "uint256"
        },
        {
          "internalType": "string",
          "name": "_content",
          "type": "string"
        }
      ],
      "name": "addRecommendation",
      "outputs": [],
      "stateMutability": "nonpayable",
      "type": "function"
    },
    {
      "inputs": [
        {
          "internalType": "uint256",
          "name": "_recommendationId",
          "type": "uint256"
        }
      ],
      "name": "getActionPlan",
      "outputs": [
        {
          "components": [
            {
              "internalType": "uint256",
              "name": "id",
              "type": "uint256"
            },
            {
              "internalType": "string",
              "name": "content",
              "type": "string"
            }
          ],
          "internalType": "struct SheLeads.ActionPlan",
          "name": "",
          "type": "tuple"
        }
      ],
      "stateMutability": "view",
      "type": "function"
    },
    {
      "inputs": [],
      "name": "getProfessionalProfile",
      "outputs": [
        {
          "components": [
            {
              "internalType": "uint256",
              "name": "id",
              "type": "uint256"
            },
            {
              "internalType": "string",
              "name": "content",
              "type": "string"
            }
          ],
          "internalType": "struct SheLeads.ProfessionalProfile",
          "name": "",
          "type": "tuple"
        }
      ],
      "stateMutability": "view",
      "type": "function"
    },
    {
      "inputs": [
        {
          "internalType": "uint256",
          "name": "_professionalProfile",
          "type": "uint256"
        }
      ],
      "name": "getRecommendation",
      "outputs": [
        {
          "components": [
            {
              "internalType": "uint256",
              "name": "id",
              "type": "uint256"
            },
            {
              "internalType": "string",
              "name": "content",
              "type": "string"
            }
          ],
          "internalType": "struct SheLeads.Recommendation",
          "name": "",
          "type": "tuple"
        }
      ],
      "stateMutability": "view",
      "type": "function"
    }
  ],
  "bytecode": "0x608060405234801561001057600080fd5b50610e14806100206000396000f3fe608060405234801561001057600080fd5b50600436106100625760003560e01c80632f7474a1146100675780633e8c3527146100835780635154da5a146100b3578063876a72d7146100cf578063a1536afe146100ed578063dd23f8ed1461011d575b600080fd5b610081600480360381019061007c919061084d565b610139565b005b61009d600480360381019061009891906108cc565b61028d565b6040516100aa91906109c4565b60405180910390f35b6100cd60048036038101906100c891906109e6565b610356565b005b6100d7610401565b6040516100e49190610a7f565b60405180910390f35b610107600480360381019061010291906108cc565b61050d565b6040516101149190610ade565b60405180910390f35b610137600480360381019061013291906109e6565b6105d6565b005b60006101456001610681565b905080600360003373ffffffffffffffffffffffffffffffffffffffff1673ffffffffffffffffffffffffffffffffffffffff16815260200190815260200160002081905550600460003373ffffffffffffffffffffffffffffffffffffffff1673ffffffffffffffffffffffffffffffffffffffff168152602001908152602001600020819080600181540180825580915050600190039060005260206000200160009091909190915055604051806040016040528082815260200183815250600560008381526020019081526020016000206000820151816000015560208201518160010190816102389190610d0c565b50905050610246600161068f565b3373ffffffffffffffffffffffffffffffffffffffff167fc7082cdecc2539ec9a36307102780434b5e042a0ef8edb52cbe8a12a291a8d0260405160405180910390a25050565b6102956106a5565b60076000838152602001908152602001600020604051806040016040529081600082015481526020016001820180546102cd90610b2f565b80601f01602080910402602001604051908101604052809291908181526020018280546102f990610b2f565b80156103465780601f1061031b57610100808354040283529160200191610346565b820191906000526020600020905b81548152906001019060200180831161032957829003601f168201915b5050505050815250509050919050565b60006103626000610681565b9050604051806040016040528082815260200183815250600660008581526020019081526020016000206000820151816000015560208201518160010190816103ab9190610d0c565b509050506103b9600061068f565b3373ffffffffffffffffffffffffffffffffffffffff167fadb097085cd54defd6de7b9090ce17112766c55f14ddb3121c252f9813aeb21360405160405180910390a2505050565b6104096106bf565b6000600360003373ffffffffffffffffffffffffffffffffffffffff1673ffffffffffffffffffffffffffffffffffffffff168152602001908152602001600020549050600560008281526020019081526020016000206040518060400160405290816000820154815260200160018201805461048590610b2f565b80601f01602080910402602001604051908101604052809291908181526020018280546104b190610b2f565b80156104fe5780601f106104d3576101008083540402835291602001916104fe565b820191906000526020600020905b8154815290600101906020018083116104e157829003601f168201915b50505050508152505091505090565b6105156106d9565b600660008381526020019081526020016000206040518060400160405290816000820154815260200160018201805461054d90610b2f565b80601f016020809104026020016040519081016040528092919081815260200182805461057990610b2f565b80156105c65780601f1061059b576101008083540402835291602001916105c6565b820191906000526020600020905b8154815290600101906020018083116105a957829003601f168201915b5050505050815250509050919050565b60006105e26002610681565b90506040518060400160405280828152602001838152506007600085815260200190815260200160002060008201518160000155602082015181600101908161062b9190610d0c565b50905050610639600261068f565b3373ffffffffffffffffffffffffffffffffffffffff167f2e666739184a056dc66b03a9cecfbadafdf4f1b649dec56336289578b834771b60405160405180910390a2505050565b600081600001549050919050565b6001816000016000828254019250508190555050565b604051806040016040528060008152602001606081525090565b604051806040016040528060008152602001606081525090565b604051806040016040528060008152602001606081525090565b6000604051905090565b600080fd5b600080fd5b600080fd5b600080fd5b6000601f19601f8301169050919050565b7f4e487b7100000000000000000000000000000000000000000000000000000000600052604160045260246000fd5b61075a82610711565b810181811067ffffffffffffffff8211171561077957610778610722565b5b80604052505050565b600061078c6106f3565b90506107988282610751565b919050565b600067ffffffffffffffff8211156107b8576107b7610722565b5b6107c182610711565b9050602081019050919050565b82818337600083830152505050565b60006107f06107eb8461079d565b610782565b90508281526020810184848401111561080c5761080b61070c565b5b6108178482856107ce565b509392505050565b600082601f83011261083457610833610707565b5b81356108448482602086016107dd565b91505092915050565b600060208284031215610863576108626106fd565b5b600082013567ffffffffffffffff81111561088157610880610702565b5b61088d8482850161081f565b91505092915050565b6000819050919050565b6108a981610896565b81146108b457600080fd5b50565b6000813590506108c6816108a0565b92915050565b6000602082840312156108e2576108e16106fd565b5b60006108f0848285016108b7565b91505092915050565b61090281610896565b82525050565b600081519050919050565b600082825260208201905092915050565b60005b83811015610942578082015181840152602081019050610927565b60008484015250505050565b600061095982610908565b6109638185610913565b9350610973818560208601610924565b61097c81610711565b840191505092915050565b600060408301600083015161099f60008601826108f9565b50602083015184820360208601526109b7828261094e565b9150508091505092915050565b600060208201905081810360008301526109de8184610987565b905092915050565b600080604083850312156109fd576109fc6106fd565b5b6000610a0b858286016108b7565b925050602083013567ffffffffffffffff811115610a2c57610a2b610702565b5b610a388582860161081f565b9150509250929050565b6000604083016000830151610a5a60008601826108f9565b5060208301518482036020860152610a72828261094e565b9150508091505092915050565b60006020820190508181036000830152610a998184610a42565b905092915050565b6000604083016000830151610ab960008601826108f9565b5060208301518482036020860152610ad1828261094e565b9150508091505092915050565b60006020820190508181036000830152610af88184610aa1565b905092915050565b7f4e487b7100000000000000000000000000000000000000000000000000000000600052602260045260246000fd5b60006002820490506001821680610b4757607f821691505b602082108103610b5a57610b59610b00565b5b50919050565b60008190508160005260206000209050919050565b60006020601f8301049050919050565b600082821b905092915050565b600060088302610bc27fffffffffffffffffffffffffffffffffffffffffffffffffffffffffffffffff82610b85565b610bcc8683610b85565b95508019841693508086168417925050509392505050565b6000819050919050565b6000610c09610c04610bff84610896565b610be4565b610896565b9050919050565b6000819050919050565b610c2383610bee565b610c37610c2f82610c10565b848454610b92565b825550505050565b600090565b610c4c610c3f565b610c57818484610c1a565b505050565b5b81811015610c7b57610c70600082610c44565b600181019050610c5d565b5050565b601f821115610cc057610c9181610b60565b610c9a84610b75565b81016020851015610ca9578190505b610cbd610cb585610b75565b830182610c5c565b50505b505050565b600082821c905092915050565b6000610ce360001984600802610cc5565b1980831691505092915050565b6000610cfc8383610cd2565b9150826002028217905092915050565b610d1582610908565b67ffffffffffffffff811115610d2e57610d2d610722565b5b610d388254610b2f565b610d43828285610c7f565b600060209050601f831160018114610d765760008415610d64578287015190505b610d6e8582610cf0565b865550610dd6565b601f198416610d8486610b60565b60005b82811015610dac57848901518255600182019150602085019450602081019050610d87565b86831015610dc95784890151610dc5601f891682610cd2565b8355505b6001600288020188555050505b50505050505056fea26469706673582212207ad6d6406031dad01ce0d8070da814d725684933b39a65ae462b1edfdeb5bb0864736f6c63430008120033",
  "linkReferences": {},
  "deployedLinkReferences": {}
}