{
  "_format": "hh-sol-artifact-1",
  "contractName": "SheLeads",
  "sourceName": "contracts/SheLeads.sol",
  "abi": [
    {
      "inputs": [],
      "stateMutability": "nonpayable",
      "type": "constructor"
    },
    {
      "anonymous": false,
      "inputs": [
        {
          "indexed": true,
          "internalType": "address",
          "name": "userAddress",
          "type": "address"
        }
      ],
      "name": "AddProfessionalProfile",
      "type": "event"
    },
    {
      "anonymous": false,
      "inputs": [
        {
          "indexed": true,
          "internalType": "address",
          "name": "userAddress",
          "type": "address"
        }
      ],
      "name": "AddRecomendation",
      "type": "event"
    },
    {
      "inputs": [
        {
          "internalType": "string",
          "name": "_content",
          "type": "string"
        }
      ],
      "name": "addProfessionalProfile",
      "outputs": [],
      "stateMutability": "nonpayable",
      "type": "function"
    },
    {
      "inputs": [
        {
          "internalType": "uint256",
          "name": "_professionalProfileId",
          "type": "uint256"
        },
        {
          "internalType": "string",
          "name": "_content",
          "type": "string"
        }
      ],
      "name": "addRecomendation",
      "outputs": [],
      "stateMutability": "nonpayable",
      "type": "function"
    },
    {
      "inputs": [],
      "name": "getProfessionalProfile",
      "outputs": [
        {
          "components": [
            {
              "internalType": "uint256",
              "name": "id",
              "type": "uint256"
            },
            {
              "internalType": "string",
              "name": "content",
              "type": "string"
            }
          ],
          "internalType": "struct SheLeads.ProfessionalProfile",
          "name": "",
          "type": "tuple"
        }
      ],
      "stateMutability": "view",
      "type": "function"
    },
    {
      "inputs": [
        {
          "internalType": "uint256",
          "name": "_professionalProfile",
          "type": "uint256"
        }
      ],
      "name": "getRecomendation",
      "outputs": [
        {
          "components": [
            {
              "internalType": "uint256",
              "name": "id",
              "type": "uint256"
            },
            {
              "internalType": "string",
              "name": "content",
              "type": "string"
            }
          ],
          "internalType": "struct SheLeads.Recommendation",
          "name": "",
          "type": "tuple"
        }
      ],
      "stateMutability": "view",
      "type": "function"
    }
  ],
  "bytecode": "0x608060405234801561001057600080fd5b50610bc5806100206000396000f3fe608060405234801561001057600080fd5b506004361061004c5760003560e01c80632f7474a1146100515780634846617d1461006d578063876a72d71461009d578063c7b7ee2c146100bb575b600080fd5b61006b6004803603810190610066919061065d565b6100d7565b005b610087600480360381019061008291906106dc565b61022b565b60405161009491906107d4565b60405180910390f35b6100a56102f4565b6040516100b29190610833565b60405180910390f35b6100d560048036038101906100d09190610855565b610400565b005b60006100e360016104ab565b905080600260003373ffffffffffffffffffffffffffffffffffffffff1673ffffffffffffffffffffffffffffffffffffffff16815260200190815260200160002081905550600360003373ffffffffffffffffffffffffffffffffffffffff1673ffffffffffffffffffffffffffffffffffffffff168152602001908152602001600020819080600181540180825580915050600190039060005260206000200160009091909190915055604051806040016040528082815260200183815250600460008381526020019081526020016000206000820151816000015560208201518160010190816101d69190610abd565b509050506101e460016104b9565b3373ffffffffffffffffffffffffffffffffffffffff167fc7082cdecc2539ec9a36307102780434b5e042a0ef8edb52cbe8a12a291a8d0260405160405180910390a25050565b6102336104cf565b600560008381526020019081526020016000206040518060400160405290816000820154815260200160018201805461026b906108e0565b80601f0160208091040260200160405190810160405280929190818152602001828054610297906108e0565b80156102e45780601f106102b9576101008083540402835291602001916102e4565b820191906000526020600020905b8154815290600101906020018083116102c757829003601f168201915b5050505050815250509050919050565b6102fc6104e9565b6000600260003373ffffffffffffffffffffffffffffffffffffffff1673ffffffffffffffffffffffffffffffffffffffff1681526020019081526020016000205490506004600082815260200190815260200160002060405180604001604052908160008201548152602001600182018054610378906108e0565b80601f01602080910402602001604051908101604052809291908181526020018280546103a4906108e0565b80156103f15780601f106103c6576101008083540402835291602001916103f1565b820191906000526020600020905b8154815290600101906020018083116103d457829003601f168201915b50505050508152505091505090565b600061040c60006104ab565b9050604051806040016040528082815260200183815250600560008581526020019081526020016000206000820151816000015560208201518160010190816104559190610abd565b5090505061046360006104b9565b3373ffffffffffffffffffffffffffffffffffffffff167fe1e1f5152e4cce34f67ea31a9e47dff2fcd9da4e9a4c9df54c5258f1fc10c1a760405160405180910390a2505050565b600081600001549050919050565b6001816000016000828254019250508190555050565b604051806040016040528060008152602001606081525090565b604051806040016040528060008152602001606081525090565b6000604051905090565b600080fd5b600080fd5b600080fd5b600080fd5b6000601f19601f8301169050919050565b7f4e487b7100000000000000000000000000000000000000000000000000000000600052604160045260246000fd5b61056a82610521565b810181811067ffffffffffffffff8211171561058957610588610532565b5b80604052505050565b600061059c610503565b90506105a88282610561565b919050565b600067ffffffffffffffff8211156105c8576105c7610532565b5b6105d182610521565b9050602081019050919050565b82818337600083830152505050565b60006106006105fb846105ad565b610592565b90508281526020810184848401111561061c5761061b61051c565b5b6106278482856105de565b509392505050565b600082601f83011261064457610643610517565b5b81356106548482602086016105ed565b91505092915050565b6000602082840312156106735761067261050d565b5b600082013567ffffffffffffffff81111561069157610690610512565b5b61069d8482850161062f565b91505092915050565b6000819050919050565b6106b9816106a6565b81146106c457600080fd5b50565b6000813590506106d6816106b0565b92915050565b6000602082840312156106f2576106f161050d565b5b6000610700848285016106c7565b91505092915050565b610712816106a6565b82525050565b600081519050919050565b600082825260208201905092915050565b60005b83811015610752578082015181840152602081019050610737565b60008484015250505050565b600061076982610718565b6107738185610723565b9350610783818560208601610734565b61078c81610521565b840191505092915050565b60006040830160008301516107af6000860182610709565b50602083015184820360208601526107c7828261075e565b9150508091505092915050565b600060208201905081810360008301526107ee8184610797565b905092915050565b600060408301600083015161080e6000860182610709565b5060208301518482036020860152610826828261075e565b9150508091505092915050565b6000602082019050818103600083015261084d81846107f6565b905092915050565b6000806040838503121561086c5761086b61050d565b5b600061087a858286016106c7565b925050602083013567ffffffffffffffff81111561089b5761089a610512565b5b6108a78582860161062f565b9150509250929050565b7f4e487b7100000000000000000000000000000000000000000000000000000000600052602260045260246000fd5b600060028204905060018216806108f857607f821691505b60208210810361090b5761090a6108b1565b5b50919050565b60008190508160005260206000209050919050565b60006020601f8301049050919050565b600082821b905092915050565b6000600883026109737fffffffffffffffffffffffffffffffffffffffffffffffffffffffffffffffff82610936565b61097d8683610936565b95508019841693508086168417925050509392505050565b6000819050919050565b60006109ba6109b56109b0846106a6565b610995565b6106a6565b9050919050565b6000819050919050565b6109d48361099f565b6109e86109e0826109c1565b848454610943565b825550505050565b600090565b6109fd6109f0565b610a088184846109cb565b505050565b5b81811015610a2c57610a216000826109f5565b600181019050610a0e565b5050565b601f821115610a7157610a4281610911565b610a4b84610926565b81016020851015610a5a578190505b610a6e610a6685610926565b830182610a0d565b50505b505050565b600082821c905092915050565b6000610a9460001984600802610a76565b1980831691505092915050565b6000610aad8383610a83565b9150826002028217905092915050565b610ac682610718565b67ffffffffffffffff811115610adf57610ade610532565b5b610ae982546108e0565b610af4828285610a30565b600060209050601f831160018114610b275760008415610b15578287015190505b610b1f8582610aa1565b865550610b87565b601f198416610b3586610911565b60005b82811015610b5d57848901518255600182019150602085019450602081019050610b38565b86831015610b7a5784890151610b76601f891682610a83565b8355505b6001600288020188555050505b50505050505056fea2646970667358221220b4e9b8ef1a9c21e4b1682352e804510dd279d036ab63762bb8ccd1bddab9436764736f6c63430008120033",
  "linkReferences": {},
  "deployedLinkReferences": {}
}